:10000000803102288731E02F08348E314726803135
:100010008031682080318E310D268031080040010A
:10002000AB004101661C152816281F2840012B082B
:10003000FC007C08F80024088E31E3268031400162
:10004000A61B2328242829282608AA002508A90059
:100050002B28A901AA01A701A8013F282030F00000
:100060000030F10040012B08FC007C08F2008F31C9
:10007000AB27803101304001A7070030A83D280898
:10008000803AFC002A08803A7C02031D492829088E
:100090002702031C4C284D282E28410166185128A0
:1000A00052285B2840012B08FC007C08F80024083B
:1000B0008E31E3268031400124088E31AC26803118
:1000C000400129087007A4002A08713DA500080016
:1000D0004001960197011830980099019A0130303B
:1000E0009100F1309200BF309300940107309500E9
:1000F00030307E01B800F030C3006730CE00D90147
:100100000730E400B901C401CF01DA01E501BA0109
:10011000C501D001DB01E601FF30BB00FF30C600A6
:10012000FF30D100FF30DC000730E700FF30BC00BB
:10013000FF30C700FF30D200FF30DD000F30E80095
:1001400017307D01CB00103092000D30930010303D
:100150007E01A60013307D01C50014307E01A3008E
:1001600014307D01C60015307E01A400BD01BE0122
:10017000BF01C801C901CA01D301D401D501E901F8
:10018000EA01EB010800E0304001ED006D08F300EA
:10019000E230EE006E08F400E430EF006F08F50086
:1001A000DE30813131218031AC304101A00000309E
:1001B000A100A930A2009230A3005F08A5005E084C
:1001C000A4008F310C278031AC30F1000030F200F8
:1001D0008E31C6268031AC304101A0000030A10034
:1001E000A230A2009230A3006108A5006008A4001C
:1001F0008F310C278031AC30F1000030F2008E31AD
:10020000C6268031AC304101A0000030A1009B30F7
:10021000A2009230A3006308A5006208A4008F31F9
:100220000C278031AC30F1000030F2008E31C62650
:100230008031AC304101A0000030A1009330A20019
:100240009230A3006508A5006408A4008F310C2734
:100250008031AC30F1000030F2008E31C6268031A2
:1002600008004001A8008E311026813141016F083D
:100270008E312926813194308E31292681318E317B
:100280001026813141016F08013E8E3129268131CE
:1002900000308E3163268131F60076084001A700D8
:1002A00000308E3163268131F60076084001A600C9
:1002B00000308E3163268131F60076084001A100BE
:1002C00000308E3163268131F60076084001A000AF
:1002D00000308E3163268131F60076084001A3009C
:1002E00000308E3163268131F60076084001A2008D
:1002F00000308E3163268131F60076084001A5007A
:1003000001308E3163268131F60076084001A40069
:100310008E31162681314001280886008701210888
:10032000C03F2008C13F7308860087012308C03FF3
:100330002208C13F7408860087012508C03F2408B1
:10034000C13F7508860087012708C03F2608C13FC6
:100350000800F3007335F20072084101EF008E319E
:100360001026813141016F088E312926813180307C
:100370008E3129268131A6308E31292681318E3168
:10038000162681318E311026813141016F088E3160
:100390002926813180308E312926813103308E31FA
:1003A000292681318E31162681318E3110268131F8
:1003B00041016F088E312926813181308E31292605
:1003C000813100308E31292681318E3116268131DE
:1003D0008E311026813141016F088E3129268131FD
:1003E0008D308E312926813100308E3129268131A0
:1003F0008E31162681318E311026813141016F08F0
:100400008E312926813183308E3129268131003089
:100410008E31292681318E31162681318E3110267A
:10042000813141016F088E31292681318F308E3123
:100430002926813101308E31292681318E311626CF
:10044000813108004001DD004E0886008701403FF1
:10045000D000413FD10050088400510885001200AF
:10046000253A031D342A352ADB2A4E0886008701E7
:100470000130810741310318810A4201E701E80197
:100480004101E601E701FF304201E900FF30EA00E7
:1004900040014E0886008701403FD000413FD10017
:1004A00050088400510885001200643A0319592A43
:1004B0005A2A6B2A4E0886008701403FD000413FF0
:1004C000D10050088400510885001200693A031DCC
:1004D0006A2A6B2AA62A4E08860087010130810706
:1004E00041310318810A4F08860087010108840002
:1004F000850102308107003FD000013FD100500844
:10050000D5005108D600890D893B8909D700D8004C
:10051000D900DA00DB00DC005508B0005608B10055
:100520005708B2005808B3005908B4005A08B5007B
:100530005B08B6005C08B7005D088431EA248231AC
:1005400040013108CF003008CE00FE2A4E08860058
:100550008701403FD000413FD1005008840051083E
:1005600085001200253A031DB62AB72AD02A4E0864
:10057000860087010130810741310318810A253047
:10058000F0000030F1005D08D0005008F2008F311B
:10059000AB27823101304001CE000030CF00FE2A6F
:1005A0004E08860087010130810741310318810A16
:1005B000CE01CF01FE2A4E0886008701403FD000C1
:1005C000413FD10050088400510885000008D20046
:1005D000D3015208F0005308F1005D08D40054081C
:1005E000F2008F31AB27823140014E08860087012F
:1005F0000130810741310318810ACA2A0800F2013B
:100600002830860000308700473FF000F01F092B9C
:100610000A2B2B2B4001A809A909AA09AB09AC098F
:10062000AD09AE09AF09A80A031D292BA90A031DAC
:10063000292BAA0A031D292BAB0A031D292BAC0A5F
:10064000031D292BAD0A031D292BAE0A031D292BDF
:10065000AF0AF201F20A2030860000308700473FDF
:10066000F000F01F342B352B542B4001A009A109B9
:10067000A209A309A409A509A609A709A00A031D9F
:10068000542BA10A031D542BA20A031D542BA30AA9
:10069000031D542BA40A031D542BA50A031D542B20
:1006A000A60A031D542BA70A400120082104220496
:1006B000230424042504260427040319602B612B3A
:1006C000B42BF101F10A702BA035A10DA20DA30DE1
:1006D000A40DA50DA60DA70D0130F0007008F107BF
:1006E000A71F732B742B642B27082F02031D922B3B
:1006F00026082E02031D922B25082D02031D922B86
:1007000024082C02031D922B23082B02031D922B7D
:1007100022082A02031D922B21082902031D922B75
:1007200020082802031C952B962BA62B2008A80234
:100730002108A93B2208AA3B2308AB3B2408AC3B79
:100740002508AD3B2608AE3B2708AF3BA736A60CD5
:10075000A50CA40CA30CA20CA10CA00C0130F1025E
:10076000031DB32BB42B742B72080319B82BB92BB0
:10077000D72BA809A909AA09AB09AC09AD09AE098B
:10078000AF09A80A031DD72BA90A031DD72BAA0A54
:10079000031DD72BAB0A031DD72BAC0A031DD72B88
:1007A000AD0A031DD72BAE0A031DD72BAF0A40019C
:1007B0002808A0002908A1002A08A2002B08A300ED
:1007C0002C08A4002D08A5002E08A6002F08A700BD
:1007D0000800F2012030860000308700473FF0001B
:1007E000F01FF32BF42B152C4001A009A109A2093D
:1007F000A309A409A509A609A709A00A031D132C8A
:10080000A10A031D132CA20A031D132CA30A031D06
:10081000132CA40A031D132CA50A031D132CA60ACE
:10082000031D132CA70AF201F20A283086000030BB
:100830008700473FF000F01F1E2C1F2C422C400168
:10084000A809A909AA09AB09AC09AD09AE09AF0904
:10085000A80A031D3E2CA90A031D3E2CAA0A031D4B
:100860003E2CAB0A031D3E2CAC0A031D3E2CAD0AE8
:10087000031D3E2CAE0A031D3E2CAF0A0130F000D2
:100880007008F20673308600003087000830F000F0
:1008900000301E00F00B492C4001200821042204E6
:1008A000230424042504260427040319582C592C56
:1008B000B52CF101F10A682CA035A10DA20DA30DF4
:1008C000A40DA50DA60DA70D0130F0007008F107CD
:1008D000A71F6B2C6C2C5C2CF335F40DF50DF60D6D
:1008E000F70DF80DF90DFA0D27082F02031D922CB4
:1008F00026082E02031D922C25082D02031D922C82
:1009000024082C02031D922C23082B02031D922C79
:1009100022082A02031D922C21082902031D922C71
:1009200020082802031C952C962CA72C2008A8022E
:100930002108A93B2208AA3B2308AB3B2408AC3B77
:100940002508AD3B2608AE3B2708AF3B7314A736FE
:10095000A60CA50CA40CA30CA20CA10CA00C01309D
:10096000F102031DB42CB52C6C2C72080319B92CA0
:10097000BA2CD82CF309F409F509F609F709F80996
:10098000F909FA09F30A031DD82CF40A031DD82C1F
:10099000F50A031DD82CF60A031DD82CF70A031DEF
:1009A000D82CF80A031DD82CF90A031DD82CFA0AF2
:1009B00073084001A0007408A1007508A200760821
:1009C000A3007708A4007808A5007908A6007A0893
:1009D000A70008004001BD003008C4003108C50070
:1009E0003208C6003308C7003408C8003508C900FB
:1009F0003608CA003708CB00443086000030870034
:100A0000473FB800B81B052D072D0130082D0030D9
:100A10004001B900BA013908C2003A08C3004208CF
:100A200043040319142D152D332DC409C509C60916
:100A3000C709C809C909CA09CB09C40A031D332D4E
:100A4000C50A031D332DC60A031D332DC70A031D16
:100A5000332DC80A031D332DC90A031D332DCA0ABD
:100A6000031D332DCB0A4201EA1B372D382D3D2DB6
:100A7000FD304101E605FF30E70542016A08803A92
:100A80004001B80080303802031D492D0130420179
:100A9000690203184C2D4D2D532D01304001BE002D
:100AA0000030BF005B2D42016A084001BF004201D7
:100AB00069084001BE00420168084001C1004201CE
:100AC00067084001C00042084304031D682D692DDA
:100AD0006E2D4101661D6D2D6E2D732DFF30400171
:100AE000C007FF30C13D1F304001CC000030CD00B9
:100AF0004301BF01E42DFF304001CC07FF30CD3D65
:100B00000A30A000A101A201A301A401A501A60130
:100B1000A7014408A8004508A9004608AA004708FC
:100B2000AB004808AC004908AD004A08AE004B08CD
:100B3000AF008231FF22843140012108F4002008F7
:100B4000F3008E31922684317308303E4001B800A4
:100B50004C08A03E86000130870038088100FF3035
:100B6000BE07FF30BF3DFF30C007FF30C13D0A3038
:100B7000A000A101A201A301A401A501A601A70152
:100B80004408A8004508A9004608AA004708AB0089
:100B90004808AC004908AD004A08AE004B08AF0059
:100BA0008331E923843140012008C4002108C500B5
:100BB0002208C6002308C7002408C8002508C90069
:100BC0002608CA002708CB0040014D08803AB8002B
:100BD00080303802031DEE2D01304C02031CF12D34
:100BE000F22D1F2E400144084504460447044804E2
:100BF00049044A044B04031DFE2DFF2D7B2D3F08A5
:100C0000803AB80080303802031D082E01303E02C1
:100C100003180B2E0C2E7B2D40014108803AB800A2
:100C200080303802031D162E01304002031C192E9D
:100C30001A2E1F2E4101E6181E2E1F2E7B2D40015D
:100C400042084304031D252E262E2B2E4101661D2E
:100C50002A2E2B2E482EFF304001CC07FF30CD3DF1
:100C600042084304031D352E362E3B2E2B30BB008D
:100C70000030BC003F2E2D30BB000030BC003B08D4
:100C8000B8004C08A03E860001308700380881007B
:100C900040014C08A03EB8003808A4004108A60056
:100CA0004008A5003D0880310F208431400125080F
:100CB000B1002408B000080021304101A00001303B
:100CC000A100AA30A2009130A3008F310C278631F9
:100CD0002130F1000130F2008E31C626863142010A
:100CE000D301D4018031C320863101304201D307C2
:100CF0000030D43D5408803AA00080302002031D0B
:100D0000832E0A305302031C862E872E722E21302A
:100D10004101A0000130A1005030A2009230A30098
:100D20008F310C2786312130F1000130F2008E31F5
:100D3000C62686314201D501D6018031C3208631D5
:100D400001304201D5070030D63D5608803AA00058
:100D500080302002031DAE2E0A305502031CB12E36
:100D6000B22E9D2E21304101A0000130A100F330B0
:100D7000A2009130A3008F310C2786312130F10081
:100D80000130F2008E31C62686314201D701D801EA
:100D90008031C320863101304201D7070030D83D71
:100DA0005808803AA00080302002031DD92E0A3056
:100DB0005702031CDC2EDD2EC82E21304101A0007D
:100DC0000130A1000B30A2009230A3008F310C271C
:100DD00086312130F1000130F2008E31C626863195
:100DE0004201D901DA018031C3208631013042014C
:100DF000D9070030DA3D5A08803AA000803020023E
:100E0000031D042F0A305902031C072F082FF32E4D
:100E100021304101A0000130A100DB30A20091305F
:100E2000A3008F310C2786312130F1000130F20010
:100E30008E31C62686314201DB01DC018031C320C0
:100E4000863101304201DB070030DC3D5C08803A2E
:100E5000A00080302002031D2F2F0A305B02031CEC
:100E6000322F332F1E2F21304101A0000130A1006D
:100E7000C330A2009130A3008F310C27863121307E
:100E8000F1000130F2008E31C62686314201DD01CB
:100E9000DE018031C320863101304201DD070030A0
:100EA000DE3D5E08803AA00080302002031D5A2FEC
:100EB0000A305D02031C5D2F5E2F492F2130410156
:100EC000A0000130A1009130A2009130A3008F3129
:100ED0000C2786312130F1000130F2008E31C62618
:100EE00086314201DF01E0018031C32086310130CB
:100EF0004201DF070030E03D6008803AA00080300A
:100F00002002031D852F0A305F02031C882F892FC2
:100F1000742F21304101A0000130A1002230A20035
:100F20009230A3008F310C2786312130F10001303F
:100F3000F2008E31C62686314201E101E2018031A4
:100F4000C320863101304201E1070030E23D6208F2
:100F5000803AA00080302002031DB02F0A306102C9
:100F6000031CB32FB42F9F2F21304101A00001306B
:100F7000A1007830A2009130A3008F310C27863178
:100F80002130F1000130F2008E31C6268631420157
:100F9000E301E4018031C320863101304201E307DF
:100FA0000030E43D6408803AA00080302002031D38
:100FB000DB2F0A306302031CDE2FDF2FCA2F08004D
:100FC0004201803104208731EF00E6308400003098
:100FD000850009308E311C26873165308400013050
:100FE00085000A308E311C268731A0308400013004
:100FF000850020308E311C26873140018E317A2EBB
:101C180008008B170B170800430111148E31222678
:101C28008E310800430111158E3122268E310800AD
:101C3800640080010131890B1D2E00344E010F1CF8
:101C4800262E272E222E0F100800F00070084301C0
:101C58008C008E3122268E310800F0004E010F1EB6
:101C6800362E372E322E700842019A00080048306E
:101C780042019F0090309D0026309E009F309B00BF
:101C880001309C000800613051018D0070308E00D9
:101C98008F014030910006309300900192010800B6
:101CA800803043018F000830900091019201273065
:101CB8008D00400193151316430190160800F1009A
:101CC800430191158E3122268E3143010C08F00014
:101CD8007008F2000F10710C031C91120318911672
:101CE80011168E3122268E317208080080310520A7
:101CF8008E318E3154268E318E313B268E31F10154
:101D0800F10A29308131A9218E318F316B278E312B
:101D180086315C268E31892E803102287408803AFB
:101D2800F50080307502031D9B2E013073020318E5
:101D38009E2E9F2EAB2E7309F5007409F600F50A46
:101D48000319F60A7508F3007608F400AB2E0800AC
:101D5800F4007408F2007208F300B62E0130F200A5
:101D68007208F40774088600013087000108031D13
:101D7800BE2EBF2EB22E73087402F000F101F01BC4
:101D8800F1030800F401F501D72E710874078400E7
:101D98007208753D850000088E3131268E3101307C
:101DA800F4070030F53D7108740784007208753D2A
:101DB80085001200031DE12EE22EC92E0800400105
:101DC800A300A101A201FB2E2008F900FA0179085D
:101DD800F0007A08F1007808FB007B08F2008F31E8
:101DE800AB278E3101304001A1070030A23D210808
:101DF8002307F90079088600013087000108FA00F6
:101E08007A08A0002008031D0A2F0B2FE82E0800CF
:101E1800A430FD007D084001E60041012108400191
:101E2800E800410120084001E700E901EA01EB016F
:101E3800EC01410123084001DF0041012208400173
:101E4800DE006630FD007D08E00067308F313A27FC
:101E58008F310230673E86008701403F41012007ED
:101E68008400413F213D8500800108004001E300D6
:101E78005F08E5005E08E4004201E501E601582F2D
:101E88006430E1006108CE006008E2006208CF001B
:101E98006308823122228F3140014E084201E50752
:101EA80040014F084201E63D40016408840065088E
:101EB80085001200031D612F622F442F420166081E
:101EC8004001DF00420165084001DE0008008E3154
:101ED80010268F3141016F088E3129268F319230BB
:101EE8008E3129268F318E3110268F3141016F08AE
:101EF80001388E3129268F3101308E3163268F319A
:101F08004001ED006D084101D4008E3116268F3155
:101F1800AC304101A0000030A1000030A200903098
:101F2800A30054084001ED00EE016D084101A40032
:101F380040016E084101A5008F310C278F31AC306C
:101F4800F1000030F2008E31C6268F310800720889
:101F58000319AF2FB02FB52F7208031DB42FB52F5B
:101F6800BA2F70088E310C268F31FF2F7208043E6D
:101F780086008701160001040319C32FC42FE22F1E
:101F88007208043E86008701403FF300413FF40099
:101F98007208023E86008701403FF500413FF60087
:101FA8007608803AF7007408803A7702031DDE2F1E
:101FB800730875020318E12FE22FFF2F7208023E03
:101FC80086008701720884008501403F0007F300FE
:101FD8000131413F003DF400730886007408870012
:101FE800700881007208023E86008701013081076F
:101FF80041310318810A08005434433453343334CC
:1020080034343734323420346134643464347234D0
:102018006534733473342034723465346134643411
:102028002034663472346F346D3420344934443487
:1020380020347234653467346934733474346534E5
:1020480072343A342034253464340A340D3400347C
:102058004D346534613473347534723465342034E6
:102068003134303420347034693465346334653441
:10207800733420344F34723461346E3467346534C9
:102088002034423465346134643420346E346F341F
:1020980077343A3420340A340D3400344D346534FE
:1020A80061347334753472346534203431343034E7
:1020B80020347034693465346334653473342034BF
:1020C80050347534723470346C346534203442348E
:1020D80065346134643420346E346F3477343A3480
:1020E80020340A340D3400344D346534613473348B
:1020F80075347234653420343134303420347034DB
:102108006934653463346534733420345934653440
:102118006C346C346F347734203442346534613431
:10212800643420346E346F3477343A3420340A34CB
:102138000D3400344D34653461347334753472347D
:1021480065342034313430342034703469346534A3
:1021580063346534733420345734683469347434E0
:1021680065342034423465346134643420346E3448
:102178006F3477343A3420340A340D3400344D3413
:1021880065346134733475347234653420343134D1
:1021980030342034703469346534633465347334CE
:1021A800203442346C34613463346B342034423428
:1021B80065346134643420346E346F3477343A349F
:1021C80020340A340D3400344D34653461347334AA
:1021D80075347234653420343134303420347034FA
:1021E8006934653463346534733420344734723465
:1021F800653465346E342034423465346134643473
:1022080020346E346F3477343A3420340A340D3441
:1022180000344D3465346134733475347234653444
:1022280020343134303420347034693465346334C4
:1022380065347334203442346C3475346534203456
:10224800423465346134643420346E346F34773406
:102258003A3420340A340D3400344D346534613452
:102268007334753472346534203431343034203466
:1022780070346934653463346534733420345034CD
:1022880069346E346B3420344234653461346434D8
:1022980020346E346F3477343A3420340A340D34B1
:1022A80000344D34653461347334753472346534B4
:1022B8002034313430342034703469346534633434
:1022C80065347334203452346534643420344234F1
:1022D80065346134643420346E346F3477343A347E
:1022E80020340A340D3400344F34723461346E347F
:1022F80067346534203442346534613464342034BE
:102308002D342034313430342034733461346D3416
:1023180070346C346534733400345034753472342A
:1023280070346C3465342034423465346134643438
:1023380020342D3420343134303420347334613433
:102348006D3470346C346534733400345934653406
:102358006C346C346F3477342034423465346134EF
:10236800643420342D342034313430342034733400
:1023780061346D3470346C346534733400345734DC
:1023880068346934743465342034423465346134D3
:10239800643420342D3420343134303420347334D0
:1023A80061346D3470346C346534733400344234C1
:1023B8006C34613463346B342034423465346134B2
:1023C800643420342D3420343134303420347334A0
:1023D80061346D3470346C3465347334003447348C
:1023E8007234653465346E34203442346534613473
:1023F800643420342D342034313430342034733470
:1024080061346D3470346C34653473340034423460
:102418006C34753465342034423465346134643442
:1024280020342D3420343134303420347334613442
:102438006D3470346C34653473340034503469341A
:102448006E346B342034423465346134643420345F
:102458002D342034313430342034733461346D34C5
:1024680070346C3465347334003442346534613408
:1024780064347334203443346F346C346F347234BE
:10248800203453346F3472347434653472342034E5
:1024980032345E3433340034523465346434203496
:1024A800423465346134643420342D34203431347A
:1024B80030342034733461346D3470346C346534A2
:1024C8007334003442344B34253464342034573464
:1024D80025346434203442344E3425346434203472
:1024E8005534253464340034593425346434203464
:1024F8005234253464342034473425346434203449
:1025080042344534253464340034473472346F34EB
:102518007534703420343A3420344234003443342F
:102528003A342034253464340A340D3400344234C7
:102538003A342034253464340934003447343A3486
:102548002034253464340934003452343A34203485
:08255800253464340934003419
:020000040001F9
:08000000FF3FFF3FFF3FFF3F00
:0A000E008C3FFF3F9F3FFF3FFF3F85
:00000001FF
