:10000000803102288731E82F08344001A300A10184
:10001000A2011D282008F900FA017908F0007A08E9
:10002000F1007808FB007B08F20080316D20803100
:1000300001304001A1070030A23D21082307F9004B
:1000400079088600013087000108FA007A08A000CC
:100050002008031D2C282D280A280800FA007708FC
:10006000F8007808FB007B08031D37283828432850
:100070000030F100F200A030F3000030F4007A0804
:100080008F31CE2780317B03031D47284828542811
:100090000030F100F2005E30F3000130F4007A0825
:1000A0008F31CE2780316C2803104001171D0314B7
:1000B00003185B285E2840011715602840011711BE
:1000C0000230F9000430F800BA30890B6528F80BCB
:1000D0006528F90B65280032080072080319712899
:1000E000722877287208031D762877287C287008E4
:1000F0008E310E268031BB287208033E86008701B0
:1001000016000104031985288628A3287208033ED7
:1001100086008701403FF300413FF400720A8600E9
:100120008701403FF500413FF6007608803AF7002E
:100130007408803A7702031D9F287308750203181C
:10014000A228A328BB287008F30072088600870144
:10015000720A8400850100080107F4007408860013
:10016000870173088100720A8600870101308107C8
:1001700041310318810A08004001A3008E31242672
:1001800080313430FD00F230890BC428FD0BC428C7
:100190008F314727803140012308860087017B0883
:1001A000C03F7C08C13F8E31202680313430FD00B5
:1001B000F230890BD928FD0BD9288F3147278031A0
:1001C00040012008860087017B08C03F7C08C13FB2
:1001D0008E31182680313430FD00F230890BEE2844
:1001E000FD0BEE288F314727803140012108860022
:1001F00087017B08C03F7C08C13F8E311C268031BF
:100200003430FD00F230890B0329FD0B03298F31B7
:100210004727803140012208860087017B08C03FC4
:100220007C08C13F08004001AB004101681C19294E
:100230001A29232940012B08FC007C08F800240817
:100240008031052081314001A61B272928292D292D
:100250002608AA002508A9002F29A901AA01A7019B
:10026000A80143292030F0000030F10040012B08A4
:10027000FC007C08F20080316D20813101304001AA
:10028000A7070030A83D2808803AFC002A08803AD9
:100290007C02031D4D2929082702031C50295129DE
:1002A000322941016818552956295F2940012B0838
:1002B000FC007C08F80024088031052081314001D1
:1002C00024088E31CF268131400129087007A4000F
:1002D0002A08713DA50008004001960197011830D9
:1002E000980099019A0130309100F1309200BF30AE
:1002F000930094010730950030307E01B800F03053
:10030000C3006730CE00D9010730E400B901C40151
:10031000CF01DA01E501BA01C501D001DB01E60137
:10032000FF30BB00FF30C600FF30D100FF30DC00E3
:100330000730E700FF30BC00FF30C700FF30D200BD
:10034000FF30DD000F30E80017307D01CB001030AA
:1003500092000D30930010307E01A60013307D0115
:10036000C50014307E01A30014307D01C600153095
:100370007E01A400BD01BE01BF01C801C901CA01BF
:10038000D301D401D501E901EA01EB0108008E3166
:10039000532681318E315D2681318E318526813122
:1003A0008E317626813180304101E4006408F1000D
:1003B00082308F316D2781318E3194268131410118
:1003C000E601E70182312722813166304101E500F3
:1003D0007630E400C130890BEB29E40BEB29E50B07
:1003E000EB2982318822813103304101E500083058
:1003F000E4007730890BFA29E40BFA29E50BFA2996
:10040000410166088231FF2281310B304101E50054
:100410002630E4005D30890B0B2AE40B0B2AE50B38
:100420000B2A003201304101E6070030E73D670842
:10043000803AE40080306402031D202A08306602FE
:10044000031C232A242AE229DF2980310228F530DF
:10045000F9000030FA000030F100F200FF30F30044
:100460000030F40000308F31CE2782310330F800A5
:100470000830F7007730890B3B2AF70B3B2AF80B43
:100480003B2A00000030F100F2000930F300013097
:10049000F40000308F31CE2782310330F80008306D
:1004A000F7007730890B522AF70B522AF80B522AA1
:1004B00000000030F100F200F530F3000030F400ED
:1004C00000308F31CE2782310330F8000830F7003A
:1004D0007730890B692AF70B692AF80B692A000023
:1004E0000030F100F200FF30F3000030F400003083
:1004F0008F31CE2782310330F8000830F700773093
:10050000890B802AF70B802AF80B802A000008004C
:10051000DE304101A70027084001A000E030410182
:10052000A80028084001A100E2304101A9002908E3
:100530004001A200DC308031BC208231A03040017B
:10054000E6009230E70041015D084001E900410109
:100550005C084001E800AA308F3123278231AA309D
:10056000F1000030F2008F3106278231A0304001C7
:10057000E6009230E70041015F084001E9004101D7
:100580005E084001E800AA308F3123278231AA306B
:10059000F1000030F2008F3106278231A030400197
:1005A000E6009230E700410161084001E9004101A5
:1005B00060084001E800AA308F3123278231AA3039
:1005C000F1000030F2008F3106278231983040016F
:1005D000E6009230E700410163084001E900410173
:1005E00062084001E800AA308F3123278231AA3007
:1005F000F1000030F2008F310627823108004001FF
:10060000A0008E2BF701003080312E208231F701BF
:10061000013080312E208231F701F70A023080311B
:100620002E208231AD2BF701003080312E20823117
:10063000F701F70A013080312E208231F7010230B4
:1006400080312E208231AD2BF701003080312E20F9
:100650008231F701F70A013080312E208231F70113
:10066000F70A023080312E208231AD2BF701F70AD4
:10067000003080312E208231F701013080312E2070
:100680008231F701023080312E208231AD2BF7010B
:10069000F70A003080312E208231F701013080319D
:1006A0002E208231F701F70A023080312E2082316C
:1006B000AD2BF701F70A003080312E208231F7018F
:1006C000F70A013080312E208231F701023080316B
:1006D0002E208231AD2BF701F70A003080312E2019
:1006E0008231F701F70A013080312E208231F70183
:1006F000F70A023080312E208231AD2BF701003015
:1007000080312E208231F701013080312E2082315C
:10071000F701023080312E208231AD2B2008FC0001
:10072000FD017D08003A0319962B7E2B7C08013AC7
:100730000319022B033A0319132B013A0319242B33
:10074000073A0319362B013A0319472B033A0319C9
:10075000592B013A03196B2B7E2B08004001DD0059
:100760004E0886008701403FD000413FD10050082D
:100770008400510885001200253A031DC02BC12BAF
:10078000672C4E088600870101308107413103182C
:10079000810A4201A201A3014101E801E901FF3000
:1007A0004201A400FF30A50040014E0886008701E9
:1007B000403FD000413FD1005008840051088500DF
:1007C0001200643A0319E52BE62BF72B4E0886003E
:1007D0008701403FD000413FD100500884005108BC
:1007E00085001200693A031DF62BF72B322C4E08B8
:1007F000860087010130810741310318810A4F08C3
:100800008600870101088400850102308107003FCE
:10081000D000013FD1005008D5005108D600890D05
:10082000893B8909D700D800D900DA00DB00DC0059
:100830005508B0005608B1005708B2005808B30078
:100840005908B4005A08B5005B08B6005C08B70048
:100850005D0886317626833140013108CF003008AB
:10086000CE008A2C4E0886008701403FD000413FD1
:10087000D10050088400510885001200253A031D5C
:10088000422C432C5C2C4E088600870101308107E6
:1008900041310318810A2530F0000030F1005D0875
:1008A000D0005008F20080316D20833101304001CA
:1008B000CE000030CF008A2C4E0886008701013020
:1008C000810741310318810ACE01CF018A2C4E08DD
:1008D00086008701403FD000413FD100500884008E
:1008E000510885000008D200D3015208F0005308D7
:1008F000F1005D08D4005408F20080316D2083318E
:1009000040014E08860087010130810741310318FC
:10091000810A562C0800F20128308600003087003A
:10092000473FF000F01F952C962CB72C4001A809EA
:10093000A909AA09AB09AC09AD09AE09AF09A80A12
:10094000031DB52CA90A031DB52CAA0A031DB52C3D
:10095000AB0A031DB52CAC0A031DB52CAD0A031D53
:10096000B52CAE0A031DB52CAF0AF201F20A2030F5
:10097000860000308700473FF000F01FC02CC12CDC
:10098000E02C4001A009A109A209A309A409A50915
:10099000A609A709A00A031DE02CA10A031DE02C4B
:1009A000A20A031DE02CA30A031DE02CA40A031DC8
:1009B000E02CA50A031DE02CA60A031DE02CA70AC3
:1009C00040012008210422042304240425042604D1
:1009D00027040319EC2CED2C402DF101F10AFC2C1D
:1009E000A035A10DA20DA30DA40DA50DA60DA70D5B
:1009F0000130F0007008F107A71FFF2C002DF02C2C
:100A000027082F02031D1E2D26082E02031D1E2D52
:100A100025082D02031D1E2D24082C02031D1E2D4A
:100A200023082B02031D1E2D22082A02031D1E2D42
:100A300021082902031D1E2D20082802031C212D38
:100A4000222D322D2008A8022108A93B2208AA3B0A
:100A50002308AB3B2408AC3B2508AD3B2608AE3B46
:100A60002708AF3BA736A60CA50CA40CA30CA20C20
:100A7000A10CA00C0130F102031D3F2D402D002DD3
:100A800072080319442D452D632DA809A909AA0947
:100A9000AB09AC09AD09AE09AF09A80A031D632D66
:100AA000A90A031D632DAA0A031D632DAB0A031DAA
:100AB000632DAC0A031D632DAD0A031D632DAE0A21
:100AC000031D632DAF0A40012808A0002908A100DA
:100AD0002A08A2002B08A3002C08A4002D08A500BA
:100AE0002E08A6002F08A7000800F201203086007B
:100AF00000308700473FF000F01F7F2D802DA12D93
:100B00004001A009A109A209A309A409A509A609F0
:100B1000A709A00A031D9F2DA10A031D9F2DA20A4C
:100B2000031D9F2DA30A031D9F2DA40A031D9F2DA6
:100B3000A50A031D9F2DA60A031D9F2DA70AF201DA
:100B4000F20A2830860000308700473FF000F01F8F
:100B5000AA2DAB2DCE2D4001A809A909AA09AB09E0
:100B6000AC09AD09AE09AF09A80A031DCA2DA90A2F
:100B7000031DCA2DAA0A031DCA2DAB0A031DCA2DC7
:100B8000AC0A031DCA2DAD0A031DCA2DAE0A031DF2
:100B9000CA2DAF0A0130F0007008F20673308600EB
:100BA000003087000830F00000301E00F00BD52D1B
:100BB00040012008210422042304240425042604DF
:100BC00027040319E42DE52D412EF101F10AF42D3E
:100BD000A035A10DA20DA30DA40DA50DA60DA70D69
:100BE0000130F0007008F107A71FF72DF82DE82D50
:100BF000F335F40DF50DF60DF70DF80DF90DFA0DB1
:100C000027082F02031D1E2E26082E02031D1E2E4E
:100C100025082D02031D1E2E24082C02031D1E2E46
:100C200023082B02031D1E2E22082A02031D1E2E3E
:100C300021082902031D1E2E20082802031C212E34
:100C4000222E332E2008A8022108A93B2208AA3B05
:100C50002308AB3B2408AC3B2508AD3B2608AE3B44
:100C60002708AF3B7314A736A60CA50CA40CA30C45
:100C7000A20CA10CA00C0130F102031D402E412E4C
:100C8000F82D72080319452E462E642EF309F40937
:100C9000F509F609F709F809F909FA09F30A031D34
:100CA000642EF40A031D642EF50A031D642EF60A51
:100CB000031D642EF70A031D642EF80A031D642E1B
:100CC000F90A031D642EFA0A73084001A000740893
:100CD000A1007508A2007608A3007708A400780890
:100CE000A5007908A6007A08A70008004001BD0009
:100CF0003008C4003108C5003208C6003308C700F8
:100D00003408C8003508C9003608CA003708CB00C7
:100D10004430860000308700473FB800B81B912E52
:100D2000932E0130942E00304001B900BA013908E9
:100D3000C2003A08C300420843040319A02EA12EA2
:100D4000BF2EC409C509C609C709C809C909CA0906
:100D5000CB09C40A031DBF2EC50A031DBF2EC60A38
:100D6000031DBF2EC70A031DBF2EC80A031DBF2EB9
:100D7000C90A031DBF2ECA0A031DBF2ECB0A42019A
:100D8000A51BC32EC42EC92EFD304101E805FF303E
:100D9000E90542012508803A4001B8008030380258
:100DA000031DD52E0130420124020318D82ED92E5E
:100DB000DF2E01304001BE000030BF00E72E4201AF
:100DC00025084001BF00420124084001BE00420145
:100DD00023084001C100420122084001C00042082E
:100DE0004304031DF42EF52EFA2E4101681DF92E41
:100DF000FA2EFF2EFF304001C007FF30C13D1F30EB
:100E00004001CC000030CD004201CA01702FFF30FC
:100E10004001CC07FF30CD3D0A30A000A101A20166
:100E2000A301A401A501A601A7014408A800450843
:100E3000A9004608AA004708AB004808AC004908CA
:100E4000AD004A08AE004B08AF0084318B248631D8
:100E500040012108F4002008F3008E31B5268631C8
:100E60007308303E4001B8004C082B3E860001302C
:100E7000870038088100FF30BE07FF30BF3DFF30DC
:100E8000C007FF30C13D0A30A000A101A201A301AB
:100E9000A401A501A601A7014408A8004508A900CE
:100EA0004608AA004708AB004808AC004908AD0056
:100EB0004A08AE004B08AF008531752586314001E8
:100EC0002008C4002108C5002208C6002308C70066
:100ED0002408C8002508C9002608CA002708CB0036
:100EE00040014D08803AB80080303802031D7A2F47
:100EF00001304C02031C7D2F7E2FAB2F4001440894
:100F0000450446044704480449044A044B04031DAD
:100F10008A2F8B2F072F3F08803AB8008030380285
:100F2000031D942F01303E020318972F982F072F8F
:100F300040014108803AB80080303802031DA22FDA
:100F400001304002031CA52FA62FAB2F4101E8184A
:100F5000AA2FAB2F072F400142084304031DB12FD6
:100F6000B22FB72F4101681DB62FB72FD42FFF30F6
:100F70004001CC07FF30CD3D42084304031DC12F83
:100F8000C22FC72F2B30BB000030BC00CB2F2D3021
:100F9000BB000030BC003B08B8004C082B3E86006C
:100FA000013087003808810040014C082B3EB80012
:100FB0003808A4004108A6004008A5003D0881317A
:100FC0001321863140012508B1002408B000080033
:100FD0004201803104208731CC00E83084000030A9
:100FE000850008308E31342687312030840001306E
:100FF00085002B308E313426873140018131C7295D
:101C1C00080044010E14080044010E1008008B1734
:101C2C000B170800400116119615080040011615F7
:101C3C009611080040011615961508004001161162
:101C4C0096110800430111148E313A268E3108008A
:101C5C00430111158E313A268E3108006400800143
:101C6C000131890B352E00344E010F1C3E2E3F2EB8
:101C7C003A2E0F100800F000700843018C008E31D2
:101C8C003A268E310800F0004E010F1E4E2E4F2EBC
:101C9C004A2E700842019A0008008E3169268E3156
:101CAC0081316C218E318E3115268E3108004830F1
:101CBC0042019F0090309D0026309E009F309B007B
:101CCC0001309C000800613051018D0070308E0095
:101CDC008F01403091000630930090019201080072
:101CEC00803043018F000830900091019201273021
:101CFC008D00400193151316430190160800440102
:101D0C008F01900101309100FF308D00FF308C006D
:101D1C004E011010111044018E01080040011610E4
:101D2C00961497103D30F100E130F0004030890BF3
:101D3C009D2EF00B9D2EF10B9D2E080044010E1DC7
:101D4C00A82EA92EB02E0E1071088D0070088C00D4
:101D5C000E14B42E71088D0070088C0008007408E5
:101D6C00803AF50080307502031DBE2E01307302DF
:101D7C000318C12EC22ECE2E7309F5007409F6007D
:101D8C00F50A0319F60A7508F3007608F400CE2E4E
:101D9C000800F4007408F2007208F300D92E013028
:101DAC00F2007208F40774088600013087000108FD
:101DBC00031DE12EE22ED52E73087402F000F10102
:101DCC00F01BF103080044010C08F2007208FA0041
:101DDC000D08F2007208F9007A08F200F301790894
:101DEC00F400F5017408F500F40172087404F700AE
:101DFC0073087504F8007808F1007708F000080003
:101E0C00F401F501172F7108740784007208753DF1
:101E1C00850000088E3149268F310130F4070030DF
:101E2C00F53D7108740784007208753D8500120039
:101E3C00031D212F222F092F08004101A600683015
:101E4C00FD007D08A0002608FD007D08A100A20170
:101E5C00A301A401A50140016708DF006608DE00AC
:101E6C00A030FD007D08E000A1308F319D278F311F
:101E7C00410122082607FD007D08860087018101AB
:101E8C00080040010D1C4B2F4C2F472F0D184F2FC6
:101E9C00502F4C2F0D1C532F542F502F0030F0006F
:101EAC00F1008E31A4268F318E310F268F314001F7
:101EBC000D18612F622F5D2F8E3112268F318E31CE
:101ECC00E9268F317108FC007008FB000800F30054
:101EDC007108F20072084201CB0040019211971177
:101EEC008E3128268F3142014B088E3141268F319D
:101EFC00FE308E3141268F3173088E3141268F3161
:101F0C008E312E268F318E3128268F3142014B088F
:101F1C008E3141268F3100308E3141268F31213068
:101F2C008E3141268F318E312E268F3108004001A3
:101F3C00E3005F08E5005E08E4004201A001A10196
:101F4C00BB2F6430E1006108CE006008E20062083B
:101F5C00CF0063088331AE238F3140014E0842011C
:101F6C00A00740014F084201A13D400164088400D4
:101F7C00650885001200031DC42FC52FA72F420131
:101F8C0021084001DF00420120084001DE0008006A
:101F9C00F60010307602031CD42FD52FD62FFF2F2E
:101FAC008E3128268F3142014B088E3141268F31DC
:101FBC007608F5000130F535FF3E031DE12F753530
:101FCC00063E8E3141268F3171088E3141268F317C
:101FDC0072080F398E3141268F3173088E314126AC
:101FEC008F3174080F398E3141268F318E312E2668
:101FFC008F3108005434433453343334343437344D
:10200C00323420346134643464347234653473345F
:10201C00733420347234653461346434203466345F
:10202C0072346F346D342034493444342034723477
:10203C0065346734693473347434653472343A34C7
:10204C002034253464340A340D3400344D34653472
:10205C006134733475347234653420343134303433
:10206C00203470346934653463346534733420340B
:10207C004F34723461346E346734653420344234F6
:10208C0065346134643420346E346F3477343A34CC
:10209C0020340A340D3400344D34653461347334D7
:1020AC007534723465342034313430342034703427
:1020BC006934653463346534733420345034753486
:1020CC00723470346C346534203442346534613489
:1020DC00643420346E346F3477343A3420340A3418
:1020EC000D3400344D3465346134733475347234CA
:1020FC0065342034313430342034703469346534F0
:10210C006334653473342034593465346C346C3432
:10211C006F34773420344234653461346434203481
:10212C006E346F3477343A3420340A340D3400343E
:10213C004D34653461347334753472346534203401
:10214C00313430342034703469346534633465345C
:10215C00733420345734683469347434653420341F
:10216C00423465346134643420346E346F347734E3
:10217C003A3420340A340D3400344D34653461342F
:10218C007334753472346534203431343034203443
:10219C0070346934653463346534733420344234B8
:1021AC006C34613463346B342034423465346134C0
:1021BC00643420346E346F3477343A3420340A3437
:1021CC000D3400344D3465346134733475347234E9
:1021DC00653420343134303420347034693465340F
:1021EC006334653473342034473472346534653465
:1021FC006E342034423465346134643420346E34AB
:10220C006F3477343A3420340A340D3400344D347E
:10221C00653461347334753472346534203431343C
:10222C003034203470346934653463346534733439
:10223C00203442346C347534653420344234653483
:10224C006134643420346E346F3477343A3420344F
:10225C000A340D3400344D346534613473347534C0
:10226C007234653420343134303420347034693471
:10227C0065346334653473342034503469346E34CB
:10228C006B342034423465346134643420346E341D
:10229C006F3477343A3420340A340D3400344D34EE
:1022AC0065346134733475347234653420343134AC
:1022BC0030342034703469346534633465347334A9
:1022CC0020345234653464342034423465346134FF
:1022DC00643420346E346F3477343A3420340A3416
:1022EC000D340034593465346C346C346F347734B9
:1022FC002034423465346134643420342D34203439
:10230C00313430342034733461346D3470346C3483
:10231C00653473340A340D3400344F347234613400
:10232C006E3467346534203442346534613464343B
:10233C0020342D342034313430342034733461342F
:10234C006D3470346C3465347334003450347534FB
:10235C00723470346C3465342034423465346134F6
:10236C00643420342D3420343134303420347334FC
:10237C0061346D3470346C346534733400345734D8
:10238C0068346934743465342034423465346134CF
:10239C00643420342D3420343134303420347334CC
:1023AC0061346D3470346C346534733400344234BD
:1023BC006C34613463346B342034423465346134AE
:1023CC00643420342D34203431343034203473349C
:1023DC0061346D3470346C34653473340034473488
:1023EC007234653465346E3420344234653461346F
:1023FC00643420342D34203431343034203473346C
:10240C0061346D3470346C3465347334003442345C
:10241C006C3475346534203442346534613464343E
:10242C0020342D342034313430342034733461343E
:10243C006D3470346C346534733400345034693416
:10244C006E346B342034423465346134643420345B
:10245C002D342034313430342034733461346D34C1
:10246C0070346C3465347334003442346534613404
:10247C0064347334203443346F346C346F347234BA
:10248C00203453346F3472347434653472342034E1
:10249C0032345E3433340034523465346434203492
:1024AC00423465346134643420342D342034313476
:1024BC0030342034733461346D3470346C3465349E
:1024CC007334003442344B34253464342034573460
:1024DC0025346434203442344E342534643420346E
:1024EC005534253464340034593425346434203460
:1024FC005234253464342034473425346434203445
:10250C0042344534253464340034473472346F34E7
:10251C007534703420343A3420344234003443342B
:10252C003A342034253464340A340D3400344234C3
:10253C003A342034253464340934003447343A3482
:10254C002034253464340934003452343A34203481
:08255C00253464340934003415
:020000040001F9
:08000000FF3FFF3FFF3FFF3F00
:0A000E008C3FFF3F9F3FFF3FFF3F85
:00000001FF
