:10000000803102288731E82F8B170B170800F30087
:100010007108F20072084201C90040019211971163
:100020008E3169268031420149088E318226803125
:10003000FE308E318226803173088E3182268031E7
:100040008E316F2680318E31692680314201490818
:100050008E318226803100308E31822680312130EF
:100060008E31822680318E316F268031080040012A
:10007000E3005F08E5005E08E4004201A001A10181
:1000800055286430E1006108CE006008E200620893
:10009000CF0063088331AE23803140014E08420116
:1000A000A00740014F084201A13D400164088400BF
:1000B000650885001200031D5E285F284128420163
:1000C00021084001DF00420120084001DE00080055
:1000D000F60010307602031C6E286F2870289928CD
:1000E0008E3169268031420149088E318226803165
:1000F0007608F5000130F535FF3E031D7B28753588
:10010000063E8E318226803171088E318226803102
:1001100072080F398E318226803173088E31822623
:10012000803174080F398E31822680318E316F26EE
:1001300080310800FA007708F8007808FB007B0897
:10014000031DA328A428AF280030F100F200A0303E
:10015000F3000030F4007A088031682080317B039E
:10016000031DB328B428C0280030F100F2005E302F
:10017000F3000130F4007A08803168208031D828FB
:1001800003104001171D03140318C728CA28400193
:100190001715CC28400117110230F9000430F8007F
:1001A000BA30890BD128F80BD128F90BD1280032AD
:1001B000080072080319DD28DE28E3287208031DF1
:1001C000E228E328E82870088E315126803127295B
:1001D0007208033E86008701160001040319F12806
:1001E000F2280F297208033E86008701403FF30082
:1001F000413FF400720A86008701403FF500413F0D
:10020000F6007608803AF7007408803A7702031DFA
:100210000B297308750203180E290F292729700866
:10022000F300720886008701720A840085010008C5
:100230000107F40074088600870173088100720AC0
:10024000860087010130810741310318810A0800C7
:100250004001A3008E31652681313430FD00F2303B
:10026000890B3029FD0B30298F31B12781314001B5
:100270002308860087017B08C03F7C08C13F8E3180
:10028000612681313430FD00F230890B4529FD0BA8
:1002900045298F31B127813140012008860087012F
:1002A0007B08C03F7C08C13F8E31592681313430F4
:1002B000FD00F230890B5A29FD0B5A298F31B127E5
:1002C000813140012108860087017B08C03F7C08FE
:1002D000C13F8E315D2681313430FD00F230890B13
:1002E0006F29FD0B6F298F31B12781314001220821
:1002F000860087017B08C03F7C08C13F08004001A1
:10030000AB004101641C852986298F2940012B08F7
:10031000FC007C08F80024088F31D7278131400188
:10032000A61B9329942999292608AA002508A90023
:100330009B29A901AA01A701A801AF292030F0003B
:100340000030F10040012B08FC007C08F2008031F5
:10035000D920813101304001A7070030A83D28088D
:10036000803AFC002A08803A7C02031DB92929083A
:100370002702031CBC29BD299E2941016418C129FB
:10038000C229CB2940012B08FC007C08F800240876
:100390008F31D7278131400124088F311A278131CD
:1003A000400129087007A4002A08713DA500080033
:1003B0004001960197011830980099019A01303058
:1003C0009100F1309200BF30930094010730950006
:1003D00030307E01B800F030C3006730CE00D90164
:1003E0000730E400B901C401CF01DA01E501BA0127
:1003F000C501D001DB01E601FF30BB00FF30C600C4
:10040000FF30D100FF30DC000730E700FF30BC00D8
:10041000FF30C700FF30D200FF30DD000F30E800B2
:1004200017307D01CB00103092000D30930010305A
:100430007E01A60013307D01C50014307E01A300AB
:1004400014307D01C60015307E01A400BD01BE013F
:10045000BF01C801C901CA01D301D401D501E90115
:10046000EA01EB010800F530F9000030FA00003035
:10047000F100F200FF30F3000030F4000030803172
:10048000682082310330F8000830F7007730890B9C
:10049000472AF70B472AF80B472A00000030F100E3
:1004A000F2000930F3000130F400003080316820A0
:1004B00082310330F8000830F7007730890B5E2A6C
:1004C000F70B5E2AF80B5E2A00000030F100F20004
:1004D000F530F3000030F4000030803168208231C4
:1004E0000330F8000830F7007730890B752AF70BD6
:1004F000752AF80B752A00000030F100F200FF3079
:10050000F3000030F4000030803168208231033085
:10051000F8000830F7007730890B8C2AF70B8C2A0B
:10052000F80B8C2A00000800DE304101A7002708E4
:100530004001A000E0304101A80028084001A100CE
:10054000E2304101A90029084001A200DC308131DC
:100550002821823128304001E6009130E700410136
:100560005D084001E90041015C084001E800AA3053
:100570008F318D278231AA308F3151278231283037
:100580004001E6009130E70041015F084001E900C9
:1005900041015E084001E800AA308F318D27823189
:1005A000AA308F315127823128304001E600913046
:1005B000E700410161084001E90041016008400194
:1005C000E800AA308F318D278231AA308F31512730
:1005D000823120304001E6009130E700410163089C
:1005E0004001E900410162084001E800AA308F3172
:1005F0008D278231AA308F31512782310800400186
:10060000A0008E2BF701003080319A208231F70153
:10061000013080319A208231F701F70A02308031AF
:100620009A208231AD2BF701003080319A2082313F
:10063000F701F70A013080319A208231F701023048
:1006400080319A208231AD2BF701003080319A2021
:100650008231F701F70A013080319A208231F701A7
:10066000F70A023080319A208231AD2BF701F70A68
:10067000003080319A208231F701013080319A2098
:100680008231F701023080319A208231AD2BF7019F
:10069000F70A003080319A208231F7010130803131
:1006A0009A208231F701F70A023080319A20823194
:1006B000AD2BF701F70A003080319A208231F70123
:1006C000F70A013080319A208231F70102308031FF
:1006D0009A208231AD2BF701F70A003080319A2041
:1006E0008231F701F70A013080319A208231F70117
:1006F000F70A023080319A208231AD2BF7010030A9
:1007000080319A208231F701013080319A20823184
:10071000F701023080319A208231AD2B2008FC0095
:10072000FD017D08003A0319962B7E2B7C08013AC7
:100730000319022B033A0319132B013A0319242B33
:10074000073A0319362B013A0319472B033A0319C9
:10075000592B013A03196B2B7E2B08004001DD0059
:100760004E0886008701403FD000413FD10050082D
:100770008400510885001200253A031DC02BC12BAF
:10078000672C4E088600870101308107413103182C
:10079000810A4201A201A3014101E401E501FF3008
:1007A0004201A400FF30A50040014E0886008701E9
:1007B000403FD000413FD1005008840051088500DF
:1007C0001200643A0319E52BE62BF72B4E0886003E
:1007D0008701403FD000413FD100500884005108BC
:1007E00085001200693A031DF62BF72B322C4E08B8
:1007F000860087010130810741310318810A4F08C3
:100800008600870101088400850102308107003FCE
:10081000D000013FD1005008D5005108D600890D05
:10082000893B8909D700D800D900DA00DB00DC0059
:100830005508B0005608B1005708B2005808B30078
:100840005908B4005A08B5005B08B6005C08B70048
:100850005D0886317626833140013108CF003008AB
:10086000CE008A2C4E0886008701403FD000413FD1
:10087000D10050088400510885001200253A031D5C
:10088000422C432C5C2C4E088600870101308107E6
:1008900041310318810A2530F0000030F1005D0875
:1008A000D0005008F2008031D9208331013040015E
:1008B000CE000030CF008A2C4E0886008701013020
:1008C000810741310318810ACE01CF018A2C4E08DD
:1008D00086008701403FD000413FD100500884008E
:1008E000510885000008D200D3015208F0005308D7
:1008F000F1005D08D4005408F2008031D920833122
:1009000040014E08860087010130810741310318FC
:10091000810A562C0800F20128308600003087003A
:10092000473FF000F01F952C962CB72C4001A809EA
:10093000A909AA09AB09AC09AD09AE09AF09A80A12
:10094000031DB52CA90A031DB52CAA0A031DB52C3D
:10095000AB0A031DB52CAC0A031DB52CAD0A031D53
:10096000B52CAE0A031DB52CAF0AF201F20A2030F5
:10097000860000308700473FF000F01FC02CC12CDC
:10098000E02C4001A009A109A209A309A409A50915
:10099000A609A709A00A031DE02CA10A031DE02C4B
:1009A000A20A031DE02CA30A031DE02CA40A031DC8
:1009B000E02CA50A031DE02CA60A031DE02CA70AC3
:1009C00040012008210422042304240425042604D1
:1009D00027040319EC2CED2C402DF101F10AFC2C1D
:1009E000A035A10DA20DA30DA40DA50DA60DA70D5B
:1009F0000130F0007008F107A71FFF2C002DF02C2C
:100A000027082F02031D1E2D26082E02031D1E2D52
:100A100025082D02031D1E2D24082C02031D1E2D4A
:100A200023082B02031D1E2D22082A02031D1E2D42
:100A300021082902031D1E2D20082802031C212D38
:100A4000222D322D2008A8022108A93B2208AA3B0A
:100A50002308AB3B2408AC3B2508AD3B2608AE3B46
:100A60002708AF3BA736A60CA50CA40CA30CA20C20
:100A7000A10CA00C0130F102031D3F2D402D002DD3
:100A800072080319442D452D632DA809A909AA0947
:100A9000AB09AC09AD09AE09AF09A80A031D632D66
:100AA000A90A031D632DAA0A031D632DAB0A031DAA
:100AB000632DAC0A031D632DAD0A031D632DAE0A21
:100AC000031D632DAF0A40012808A0002908A100DA
:100AD0002A08A2002B08A3002C08A4002D08A500BA
:100AE0002E08A6002F08A7000800F201203086007B
:100AF00000308700473FF000F01F7F2D802DA12D93
:100B00004001A009A109A209A309A409A509A609F0
:100B1000A709A00A031D9F2DA10A031D9F2DA20A4C
:100B2000031D9F2DA30A031D9F2DA40A031D9F2DA6
:100B3000A50A031D9F2DA60A031D9F2DA70AF201DA
:100B4000F20A2830860000308700473FF000F01F8F
:100B5000AA2DAB2DCE2D4001A809A909AA09AB09E0
:100B6000AC09AD09AE09AF09A80A031DCA2DA90A2F
:100B7000031DCA2DAA0A031DCA2DAB0A031DCA2DC7
:100B8000AC0A031DCA2DAD0A031DCA2DAE0A031DF2
:100B9000CA2DAF0A0130F0007008F20673308600EB
:100BA000003087000830F00000301E00F00BD52D1B
:100BB00040012008210422042304240425042604DF
:100BC00027040319E42DE52D412EF101F10AF42D3E
:100BD000A035A10DA20DA30DA40DA50DA60DA70D69
:100BE0000130F0007008F107A71FF72DF82DE82D50
:100BF000F335F40DF50DF60DF70DF80DF90DFA0DB1
:100C000027082F02031D1E2E26082E02031D1E2E4E
:100C100025082D02031D1E2E24082C02031D1E2E46
:100C200023082B02031D1E2E22082A02031D1E2E3E
:100C300021082902031D1E2E20082802031C212E34
:100C4000222E332E2008A8022108A93B2208AA3B05
:100C50002308AB3B2408AC3B2508AD3B2608AE3B44
:100C60002708AF3B7314A736A60CA50CA40CA30C45
:100C7000A20CA10CA00C0130F102031D402E412E4C
:100C8000F82D72080319452E462E642EF309F40937
:100C9000F509F609F709F809F909FA09F30A031D34
:100CA000642EF40A031D642EF50A031D642EF60A51
:100CB000031D642EF70A031D642EF80A031D642E1B
:100CC000F90A031D642EFA0A73084001A000740893
:100CD000A1007508A2007608A3007708A400780890
:100CE000A5007908A6007A08A70008004001BD0009
:100CF0003008C4003108C5003208C6003308C700F8
:100D00003408C8003508C9003608CA003708CB00C7
:100D10004430860000308700473FB800B81B912E52
:100D2000932E0130942E00304001B900BA013908E9
:100D3000C2003A08C300420843040319A02EA12EA2
:100D4000BF2EC409C509C609C709C809C909CA0906
:100D5000CB09C40A031DBF2EC50A031DBF2EC60A38
:100D6000031DBF2EC70A031DBF2EC80A031DBF2EB9
:100D7000C90A031DBF2ECA0A031DBF2ECB0A42019A
:100D8000A51BC32EC42EC92EFD304101E405FF3042
:100D9000E50542012508803A4001B800803038025C
:100DA000031DD52E0130420124020318D82ED92E5E
:100DB000DF2E01304001BE000030BF00E72E4201AF
:100DC00025084001BF00420124084001BE00420145
:100DD00023084001C100420122084001C00042082E
:100DE0004304031DF42EF52EFA2E4101641DF92E45
:100DF000FA2EFF2EFF304001C007FF30C13D1F30EB
:100E00004001CC000030CD004201C801702FFF30FE
:100E10004001CC07FF30CD3D0A30A000A101A20166
:100E2000A301A401A501A601A7014408A800450843
:100E3000A9004608AA004708AB004808AC004908CA
:100E4000AD004A08AE004B08AF0084318B248631D8
:100E500040012108F4002008F3008F31002786317B
:100E60007308303E4001B8004C08293E860001302E
:100E7000870038088100FF30BE07FF30BF3DFF30DC
:100E8000C007FF30C13D0A30A000A101A201A301AB
:100E9000A401A501A601A7014408A8004508A900CE
:100EA0004608AA004708AB004808AC004908AD0056
:100EB0004A08AE004B08AF008531752586314001E8
:100EC0002008C4002108C5002208C6002308C70066
:100ED0002408C8002508C9002608CA002708CB0036
:100EE00040014D08803AB80080303802031D7A2F47
:100EF00001304C02031C7D2F7E2FAB2F4001440894
:100F0000450446044704480449044A044B04031DAD
:100F10008A2F8B2F072F3F08803AB8008030380285
:100F2000031D942F01303E020318972F982F072F8F
:100F300040014108803AB80080303802031DA22FDA
:100F400001304002031CA52FA62FAB2F4101E4184E
:100F5000AA2FAB2F072F400142084304031DB12FD6
:100F6000B22FB72F4101641DB62FB72FD42FFF30FA
:100F70004001CC07FF30CD3D42084304031DC12F83
:100F8000C22FC72F2B30BB000030BC00CB2F2D3021
:100F9000BB000030BC003B08B8004C08293E86006E
:100FA000013087003808810040014C08293EB80014
:100FB0003808A4004108A6004008A5003D0881317A
:100FC0007F21863140012508B1002408B0000800C7
:100FD00042018E3152268731CA00E430840000304D
:100FE00085000C308E317526873120308400013029
:100FF000850029308E317526873140018E318A2E49
:101000005434433453343334343437343234203466
:10101000613464346434723465347334733420342A
:1010200072346534613464342034663472346F341D
:101030006D34203449344434203472346534673498
:10104000693473347434653472343A34203425345A
:0810500064340A340D3400344D
:101CA2000800083444010E14080044010E10080014
:101CB20040011611961508004001161596110800EC
:101CC20040011615961508004001161196110800DC
:101CD200430111148E317B268E3108004301111508
:101CE2008E317B268E310800640080010131890B20
:101CF200762E00344E010F1C7F2E802E7B2E0F106D
:101D02000800F000700843018C008E317B268E3172
:101D120008008F316F278E318E319D268E318D2EA8
:101D220080310228F0004E010F1E982E992E942E1B
:101D3200700842019A000800823133228E318231CA
:101D420094228E3100308231FF228E3108004830D9
:101D520042019F0090309D0026309E009F309B00E4
:101D620001309C000800613051018D0070308E00FE
:101D72008F014030910006309300900192010800DB
:101D8200803043018F00083090009101920127308A
:101D92008D0040019315131643019016080044016B
:101DA2008F01900101309100FF308D00FF308C00D7
:101DB2004E011010111044018E010800400116104E
:101DC200961497103D30F100E130F0004030890B5D
:101DD200E82EF00BE82EF10BE82E080044010E1D50
:101DE200F32EF42EFB2E0E1071088D0070088C005D
:101DF2000E14FF2E71088D0070088C000800740804
:101E0200803AF50080307502031D092F01307302FC
:101E120003180C2F0D2F192F7309F5007409F60002
:101E2200F50A0319F60A7508F3007608F400192F6B
:101E32000800F4007408F2007208F300242F013045
:101E4200F2007208F4077408860001308700010866
:101E5200031D2C2F2D2F202F73087402F000F10187
:101E6200F01BF103080044010C08F2007208FA00AA
:101E72000D08F2007208F9007A08F200F3017908FD
:101E8200F400F5017408F500F40172087404F70017
:101E920073087504F8007808F1007708F00008006C
:101EA200F400F201F301632F72087407F100710864
:101EB2008600870101088E3193268F310130F207A7
:101EC2000030F33D72087407F10071088600870143
:101ED2000108031D6D2F6E2F552F08008E31B42679
:101EE2008F318131D8218F31803104208F318E3171
:101EF200A8268F318E31D0268F318E31C1268F3177
:101F02008030F4007408F1008230803107208F3174
:101F12008E31DF268F3108004101A6006830FD00B6
:101F22007D08A0002608FD007D08A100A201A301F2
:101F3200A401A50140016708DF006608DE00A030A9
:101F4200FD007D08E000A130803137208F31410152
:101F520022082607FD007D0886008701810108000E
:101F620040010D1CB52FB62FB12F0D18B92FBA2F66
:101F7200B62F0D1CBD2FBE2FBA2F0030F000F1007E
:101F82008E31EF268F318E3153268F3140010D185D
:101F9200CB2FCC2FC72F8E3156268F318F3134273E
:101FA2008F317108FC007008FB0008004001A3009B
:101FB200A101A201EF2F2008F900FA017908F0002F
:101FC2007A08F1007808FB007B08F2008031D92002
:101FD2008F3101304001A1070030A23D21082307C3
:101FE200F90079088600013087000108FA007A08B2
:101FF200A0002008031DFE2FFF2FDC2F08005934FC
:1020020065346C346C346F34773420344234653444
:102012006134643420342D3420343134303420346B
:10202200733461346D3470346C34653473340A340F
:102032000D3400344F34723461346E346734653495
:102042002034423465346134643420342D342034F5
:10205200313430342034733461346D3470346C3440
:1020620065347334003450347534723470346C34E3
:1020720065342034423465346134643420342D3480
:102082002034313430342034733461346D3470345C
:102092006C346534733400345734683469347434BE
:1020A20065342034423465346134643420342D3450
:1020B2002034313430342034733461346D3470342C
:1020C2006C3465347334003442346C3461346334B8
:1020D2006B342034423465346134643420342D341A
:1020E2002034313430342034733461346D347034FC
:1020F2006C34653473340034473472346534653477
:102102006E342034423465346134643420342D34E6
:102112002034313430342034733461346D347034CB
:102122006C3465347334003442346C347534653441
:102132002034423465346134643420342D34203404
:10214200313430342034733461346D3470346C344F
:10215200653473340034503469346E346B34203453
:10216200423465346134643420342D3420343134C3
:1021720030342034733461346D3470346C346534EB
:10218200733400344234653461346434733420343B
:1021920043346F346C346F347234203453346F34BC
:1021A2007234743465347234203432345E343334ED
:1021B200003452346534643420344234653461343A
:1021C200643420342D3420343134303420347334A8
:1021D20061346D3470346C34653473340034423499
:1021E2004B34253464342034573425346434203459
:1021F20042344E3425346434203455342534643426
:10220200003459342534643420345234253464344F
:102212002034473425346434203442344534253460
:1022220064340034473472346F347534703420347B
:102232003A3420344234003443343A34203425349E
:1022420064340A340D34003442343A3420342534B0
:1022520064340934003447343A3420342534643445
:102262000934003452343A34203425346434093485
:02227200003436
:020000040001F9
:08000000FF3FFF3FFF3FFF3F00
:0A000E008C3FFF3F9F3FFF3FFF3F85
:00000001FF
