:10000000803102288731E82F8B170B170800F70083
:100010004101E201E20A7708F0398A31AF228031EA
:100020007708F6000330F635FF3E031D13287635BA
:10003000F0398A31AF2280310800F801F80A013026
:100040008C316524803129304001E6009030E70092
:1000500041016B08A700A80127084001E800410101
:1000600028084001E90041016A08A900AA012908FD
:100070004001EA0041012A084001EB004101690802
:10008000AB00AC012B084001EC0041012C08400101
:10009000ED0041016808AD00AE012D084001EE0001
:1000A00041012E084001EF00AF308B317B238031BE
:1000B000AF30F8000030F9008B313F238031F80178
:1000C000F80A02308C316524803117304001E60097
:1000D0009030E70041016708A700A8012708400108
:1000E000E800410128084001E90041016608A90033
:1000F000AA0129084001EA0041012A084001EB0059
:1001000041016508AB00AC012B084001EC00410146
:100110002C084001ED0041016408AD00AE012D083E
:100120004001EE0041012E084001EF00AF308B315D
:100130007B238031AF30F8000030F9008B313F2352
:10014000803108004001DD004E0886008701403FF5
:10015000D000413FD10050088400510885001200B2
:10016000253A031DB428B52859294E088600870171
:100170000130810741310318810A4101DC01DD01B1
:10018000E001E101FF30DE00FF30DF0040014E08FA
:1001900086008701403FD000413FD10050088400D5
:1001A000510885001200643A0319D728D828E92895
:1001B0004E0886008701403FD000413FD1005008E3
:1001C0008400510885001200693A031DE828E928D7
:1001D00024294E0886008701013081074131031828
:1001E000810A4F08860087010108840085010230DA
:1001F0008107003FD000013FD1005008D5005108D1
:10020000D600890D893B8909D700D800D900DA00CA
:10021000DB00DC005508B0005608B1005708B200FA
:100220005808B3005908B4005A08B5005B08B60076
:100230005C08B7005D0883316823803140013108D4
:10024000CF003008CE007C294E0886008701403F51
:10025000D000413FD10050088400510885001200B1
:10026000253A031D342935294E294E088600870179
:100270000130810741310318810A2530F000003038
:10028000F1005D08D0005008F2008D316725803103
:1002900001304001CE000030CF007C294E0886009E
:1002A00087010130810741310318810ACE01CF0156
:1002B0007C294E0886008701403FD000413FD10095
:1002C00050088400510885000008D200D30152086C
:1002D000F0005308F1005D08D4005408F2008D319D
:1002E0006725803140014E08860087010130810773
:1002F00041310318810A48290800F201283086009C
:1003000000308700473FF000F01F87298829A9297E
:100310004001A809A909AA09AB09AC09AD09AE09B0
:10032000AF09A80A031DA729A90A031DA729AA0A1C
:10033000031DA729AB0A031DA729AC0A031DA72982
:10034000AD0A031DA729AE0A031DA729AF0AF201B2
:10035000F20A2030860000308700473FF000F01F8F
:10036000B229B329D2294001A009A109A209A309F0
:10037000A409A509A609A709A00A031DD229A10A53
:10038000031DD229A20A031DD229A30A031DD229C3
:10039000A40A031DD229A50A031DD229A60A031DFA
:1003A000D229A70A4001200821042204230424049E
:1003B0002504260427040319DE29DF29322AF10146
:1003C000F10AEE29A035A10DA20DA30DA40DA50DD6
:1003D000A60DA70D0130F0007008F107A71FF12945
:1003E000F229E22927082F02031D102A26082E02CF
:1003F000031D102A25082D02031D102A24082C0293
:10040000031D102A23082B02031D102A22082A028A
:10041000031D102A21082902031D102A2008280282
:10042000031C132A142A242A2008A8022108A93B05
:100430002208AA3B2308AB3B2408AC3B2508AD3B74
:100440002608AE3B2708AF3BA736A60CA50CA40C8C
:10045000A30CA20CA10CA00C0130F102031D312A47
:10046000322AF22972080319362A372A552AA8098E
:10047000A909AA09AB09AC09AD09AE09AF09A80AD7
:10048000031D552AA90A031D552AAA0A031D552A28
:10049000AB0A031D552AAC0A031D552AAD0A031DDC
:1004A000552AAE0A031D552AAF0A40012808A000AC
:1004B0002908A1002A08A2002B08A3002C08A400E8
:1004C0002D08A5002E08A6002F08A7000800F2019D
:1004D0002030860000308700473FF000F01F712A6F
:1004E000722A932A4001A009A109A209A309A4091B
:1004F000A509A609A709A00A031D912AA10A031D9F
:10050000912AA20A031D912AA30A031D912AA40A73
:10051000031D912AA50A031D912AA60A031D912AEB
:10052000A70AF201F20A2830860000308700473F10
:10053000F000F01F9C2A9D2AC02A4001A809A909A1
:10054000AA09AB09AC09AD09AE09AF09A80A031D98
:10055000BC2AA90A031DBC2AAA0A031DBC2AAB0A8D
:10056000031DBC2AAC0A031DBC2AAD0A031DBC2A0C
:10057000AE0A031DBC2AAF0A0130F0007008F20673
:1005800073308600003087000830F00000301E0015
:10059000F00BC72A4001200821042204230424046C
:1005A0002504260427040319D62AD72A332BF10160
:1005B000F10AE62AA035A10DA20DA30DA40DA50DEB
:1005C000A60DA70D0130F0007008F107A71FE92A5A
:1005D000EA2ADA2AF335F40DF50DF60DF70DF80DCC
:1005E000F90DFA0D27082F02031D102B26082E02E5
:1005F000031D102B25082D02031D102B24082C028F
:10060000031D102B23082B02031D102B22082A0286
:10061000031D102B21082902031D102B200828027E
:10062000031C132B142B252B2008A8022108A93BFF
:100630002208AA3B2308AB3B2408AC3B2508AD3B72
:100640002608AE3B2708AF3B7314A736A60CA50CB3
:10065000A40CA30CA20CA10CA00C0130F102031DF0
:10066000322B332BEA2A72080319372B382B562BDF
:10067000F309F409F509F609F709F809F909FA097E
:10068000F30A031D562BF40A031D562BF50A031D0E
:10069000562BF60A031D562BF70A031D562BF80A94
:1006A000031D562BF90A031D562BFA0A7308400145
:1006B000A0007408A1007508A2007608A3007708BE
:1006C000A4007808A5007908A6007A08A700080009
:1006D0004001BD003008C4003108C5003208C60022
:1006E0003308C7003408C8003508C9003608CA00F6
:1006F0003708CB004430860000308700473FB80001
:10070000B81B832B852B0130862B00304001B900AC
:10071000BA013908C2003A08C30042084304031969
:10072000922B932BB12BC409C509C609C709C80967
:10073000C909CA09CB09C40A031DB12BC50A031D87
:10074000B12BC60A031DB12BC70A031DB12BC80A62
:10075000031DB12BC90A031DB12BCA0A031DB12BFE
:10076000CB0A4101DF1BB52BB62BBA2BFD30E005C0
:10077000FF30E1055F08803A4001B8008030380260
:10078000031DC52B013041015E020318C82BC92B84
:10079000CF2B01304001BE000030BF00D72B4101FC
:1007A0005F084001BF0041015E084001BE004101F9
:1007B0005D084001C10041015C084001C0004208E1
:1007C0004304031DE42BE52BEA2B4101601DE92BBB
:1007D000EA2BEF2BFF304001C007FF30C13D1F3037
:1007E0004001CC000030CD004201BF01602CFF3041
:1007F0004001CC07FF30CD3D0A30A000A101A2018D
:10080000A301A401A501A601A7014408A800450869
:10081000A9004608AA004708AB004808AC004908F0
:10082000AD004A08AE004B08AF0081317D21833115
:1008300040012108F4002008F3008A31EE228331C0
:100840007308303E4001B8004C08203E860001305D
:10085000870038088100FF30BE07FF30BF3DFF3002
:10086000C007FF30C13D0A30A000A101A201A301D1
:10087000A401A501A601A7014408A8004508A900F4
:100880004608AA004708AB004808AC004908AD007C
:100890004A08AE004B08AF00823167228331400125
:1008A0002008C4002108C5002208C6002308C7008C
:1008B0002408C8002508C9002608CA002708CB005C
:1008C00040014D08803AB80080303802031D6A2C80
:1008D00001304C02031C6D2C6E2C9B2C40014408F3
:1008E000450446044704480449044A044B04031DD4
:1008F0007A2C7B2CF72B3F08803AB80080303802E6
:10090000031D842C01303E020318872C882CF72B02
:1009100040014108803AB80080303802031D922C13
:1009200001304002031C952C962C9B2C4101E018B1
:100930009A2C9B2CF72B400142084304031DA12C49
:10094000A22CA72C4101601DA62CA72CC42CFF3083
:100950004001CC07FF30CD3D42084304031DB12CBC
:10096000B22CB72C2B30BB000030BC00BB2C2D3080
:10097000BB000030BC003B08B8004C08203E86009D
:10098000013087003808810040014C08203EB80043
:100990003808A4004108A6004008A5003D088D3194
:1009A000B625833140012508B1002408B0000800B5
:1009B0007608FF3EF000FF30773DF1007608013EFB
:1009C000F200FF30773DF3008B315C2384317108F6
:1009D0004001A2007008A1007808FF3EF000FF303F
:1009E000793DF1007808013EF200FF30793DF300D7
:1009F0008B315C23843171084001A4007008A3008E
:100A00007A08FF3EF000FF307B3DF1007A08013E9E
:100A1000F200FF307B3DF3008B315C2384317108A1
:100A20004001A6007008A5007C08FF3EF000FF30E2
:100A30007D3DF1007A08013EF200FF307B3DF3007E
:100A40008B315C23843171084001A8007008A70035
:100A500021082204031D2D2D2E2D472D23082404AB
:100A6000031D332D342D472D25082604031D392D54
:100A70003A2D472D27082804031D3F2D402D472DD3
:100A80000130A00020084101EB070130E72F760874
:100A9000FF3EF000FF30773DF1007608013EF200A6
:100AA000FF30773DF3008B315C23843171084001C6
:100AB000A2007008A1007808FF3EF000FF30793DE9
:100AC000F1007808013EF200FF30793DF3008B31F0
:100AD0005C23843171084001A4007008A3007A08E7
:100AE000FF3EF000FF307B3DF1007A08013EF2004E
:100AF000FF307B3DF3008B315C2384317108400172
:100B0000A6007008A5007C08FF3EF000FF307D3D88
:100B1000F1007A08013EF200FF307B3DF3008B319B
:100B20005C23843171084001A8007008A7002108E7
:100B30002204031D9C2D9D2DB62D23082404031D86
:100B4000A22DA32DB62D25082604031DA82DA92D01
:100B5000B62D27082804031DAE2DAF2DB62D01306C
:100B6000A00020084101EA070230E72F7608FF3E87
:100B7000F000FF30773DF1007608013EF200FF30D3
:100B8000773DF3008B315C23843171084001A20072
:100B90007008A1007808FF3EF000FF30793DF100B9
:100BA0007808013EF200FF30793DF3008B315C2381
:100BB000843171084001A4007008A3007A08FF3E48
:100BC000F000FF307B3DF1007A08013EF200FF307B
:100BD0007B3DF3008B315C23843171084001A6001A
:100BE0007008A5007C08FF3EF000FF307D3DF1005D
:100BF0007A08013EF200FF307B3DF3008B315C232D
:100C0000843171084001A8007008A700210822045F
:100C1000031D0B2E0C2E252E23082404031D112E3C
:100C2000122E252E25082604031D172E182E252EDC
:100C300027082804031D1D2E1E2E252E0130A0007E
:100C400020084101E9070330E72F7608FF3EF00056
:100C5000FF30773DF1007608013EF200FF30773D2E
:100C6000F3008B315C23843171084001A2007008CD
:100C7000A1007808FF3EF000FF30793DF1007808D0
:100C8000013EF200FF30793DF3008B315C2384316B
:100C900071084001A4007008A3007A08FF3EF0002C
:100CA000FF307B3DF1007A08013EF200FF307B3DD2
:100CB000F3008B315C23843171084001A600700879
:100CC000A5007C08FF3EF000FF307D3DF1007A0872
:100CD000013EF200FF307B3DF3008B315C23843119
:100CE00071084001A8007008A70021082204031D14
:100CF0007A2E7B2E942E23082404031D802E812E11
:100D0000942E25082604031D862E872E942E270850
:100D10002804031D8C2E8D2E942E0130A000200857
:100D20004101E8070430E72F7608FF3EF000FF306E
:100D3000773DF1007608013EF200FF30773DF30089
:100D40008B315C23843171084001A2007008A1003E
:100D50007808FF3EF000FF30793DF1007808013E51
:100D6000F200FF30793DF3008B315C238431710850
:100D70004001A4007008A3007A08FF3EF000FF3095
:100D80007B3DF1007A08013EF200FF307B3DF3002D
:100D90008B315C23843171084001A6007008A500E6
:100DA0007C08FF3EF000FF307D3DF1007A08013EF7
:100DB000F200FF307B3DF3008B315C2384317108FE
:100DC0004001A8007008A70021082204031DE92E95
:100DD000EA2E032F23082404031DEF2EF02E032FE9
:100DE00025082604031DF52EF62E032F27082804B8
:100DF000031DFB2EFC2E032F0130A0002008410113
:100E0000E7070530E72F7608FF3EF000FF30773D1B
:100E1000F1007608013EF200FF30773DF3008B31A0
:100E20005C23843171084001A2007008A100780899
:100E3000FF3EF000FF30793DF1007808013EF200FE
:100E4000FF30793DF3008B315C2384317108400120
:100E5000A4007008A3007A08FF3EF000FF307B3D3D
:100E6000F1007A08013EF200FF307B3DF3008B3148
:100E70005C23843171084001A6007008A5007C083D
:100E8000FF3EF000FF307D3DF1007A08013EF200A8
:100E9000FF307B3DF3008B315C23843171084001CE
:100EA000A8007008A70021082204031D582F592FFD
:100EB000722F23082404031D5E2F5F2F722F250835
:100EC0002604031D642F652F722F27082804031D95
:100ED0006A2F6B2F722F0130A00020084101E60716
:100EE0000630E72F7608FF3EF000FF30773DF10037
:100EF0007608013EF200FF30773DF3008B315C2332
:100F0000843171084001A2007008A1007808FF3EFA
:100F1000F000FF30793DF1007808013EF200FF302B
:100F2000793DF3008B315C23843171084001A400CA
:100F30007008A3007A08FF3EF000FF307B3DF1000F
:100F40007A08013EF200FF307B3DF3008B315C23D9
:100F5000843171084001A6007008A5007C08FF3E9E
:100F6000F000FF307D3DF1007A08013EF200FF30D5
:100F70007B3DF3008B315C23843171084001A80074
:100F80007008A70021082204031DC72FC82FE12FD6
:100F900023082404031DCD2FCE2FE12F250826047E
:100FA000031DD32FD42FE12F27082804031DD92F89
:100FB000DA2FE12F0130A00020084101E5070730BA
:100FC000E72F0130A00020084101E40700300800AD
:100FD00041018A3103228731ED00DA30840000308C
:100FE000850012308A31262287312030840001307A
:100FF000850020308A312622873140018D31232D12
:101404000800083444010E14080044010E100800BA
:101414004001161196150800400116159611080092
:101424004001161596150800400116119611080082
:10143400430111148B319F238A3108004301111594
:101444008B319F238A310800640080010131890BAC
:10145400272A0034F200720843018C008B319F2349
:101464008A310800483042019F0090309D002630A8
:101474009E009F309B0001309C00080061305101A8
:101484008D0070308E008F01403091000630930043
:10149400900192010800803043018F0008309000D1
:1014A400910192019F308D00400193151316430161
:1014B4009016080044018F01900101309100FF3023
:1014C4008D00FF308C004E011010111044018E016C
:1014D400080040011614961097103D30F100E130D9
:1014E400F0004030890B742AF00B742AF10B742A33
:1014F40008008A3140228A318E310F268A318A319E
:101504004D228A318A315C228A31803104208A3129
:10151400080044010E1D8F2A902A972A0E10710884
:101524008D0070088C000E149B2A71088D007008C1
:101534008C000800F3008A311A228A3141016308C1
:101544008A312C228A31730841016D048A312C229C
:101554008A318A3120228A310800F500410162086B
:10156400F4007408F504750804388A319C228A3121
:101574007508FB398A319C228A314230890BC02A92
:1015840000320800F7004101E2017708F0398A319E
:10159400AF228A317708F6000330F635FF3E031D8B
:1015A400CF2A7635F0398A31AF228A310800F30028
:1015B400F201731CDE2ADF2AE32A7008F1007108A5
:1015C400F2070310F00D0310F30C7308031DEB2A4C
:1015D400EC2ADB2A720808007408803AF50080308F
:1015E4007502031DF72A013073020318FA2AFB2A35
:1015F400072B7309F5007409F600F50A0319F60AB6
:101604007508F3007608F400072B0800F40074084A
:10161400F2007208F300122B0130F2007208F40792
:1016240074088600013087000108031D1A2B1B2B48
:101634000E2B73087402F000F101F01BF103080093
:1016440044010C08F2007208FA000D08F200720856
:10165400F9007A08F200F3017908F400F50174083E
:10166400F500F40172087404F70073087504F800B7
:101674007808F1007708F0000800FB01FC01502B0A
:1016840078087B07840079087C3D85000008803158
:1016940007208B310130FB070030FC3D78087B07C5
:1016A400840079087C3D85001200031D5A2B5B2BB6
:1016B400422B0800F401F501701C612B622B662B90
:1016C4007208F4077308F53D0130F235F30D890B08
:1016D400672B0130F136F00C890B6C2B7008710408
:1016E400031D752B762B5E2B7508F1007408F00032
:1016F40008004101A1006830FD007D08A000210818
:10170400FD007D08A200A301A401A501A6014001DA
:101714006708DF006608DE00A030FD007D08E000F9
:10172400A2308C31F2248B31410123082107FD00C2
:101734007D088600870181010800BE2B4301901FAC
:10174400A42BA52BBE2B03104001171D0314031853
:10175400AC2BAF2B40011715B12B400117110230F0
:10176400F1000430F000BA30890BB62BF00BB62B25
:10177400F10BB62B0032A52B4E010F1CC22BC32B31
:10178400A02B0F10080040010D1CC92BCA2BC52B20
:101794000D18CD2BCE2BCA2B0D1CD12BD22BCE2B1F
:1017A4000030F000F1008A318B228B318A3104221F
:1017B4008B3140010D18DF2BE02BDB2B8A31072204
:1017C4008B318B3122238B317108FC007008FB00B4
:1017D4000800F801F80A01308C3165248B3100309F
:1017E400F8009030F9008B313F238B31F801F80A6F
:1017F40002308C3165248B313A30F8009030F90096
:101804008B313F238B3166304001A1007630A0003C
:10181400C130890B0B2CA00B0B2CA10B0B2C08003B
:101824004001A300A101A2012A2C2008F900FA0119
:101834007908F0007A08F1007808FB007B08F200D0
:101844008D3167258C3101304001A1070030A23D64
:1018540021082307F9007908860001308700010870
:10186400FA007A08A0002008031D392C3A2C172C02
:101874000800F70010307702031C412C422C432C43
:10188400642C8A311A228C3141016C088A312C2251
:101894008C3106308A312C228C3173088A312C2207
:1018A4008C3174080F398A312C228C3175088A31B5
:1018B4002C228C3176080F398A312C228C318A31D2
:1018C40020228C310800FB007F2C7808BF3E8A312F
:1018D400C4228C31922C7808933E8A31C4228C31F4
:1018E400922C7808D33E8A31C4228C31922C780809
:1018F4007F3E8A31C4228C31922C7B08F900FA0194
:101904007A08003A0319872C792C7908023A0319CA
:10191400672C013A03196D2C073A0319732C792C9F
:1019240008004001A0006B30F9007908F000780845
:101934008A31D9228C31A03EFA007A084001A100F4
:101944009530F9007908F00078088A31D9228C3171
:101954005F3EFA007A084001A2002108F900FA016A
:101964007908F3007A08F4002208FB00FC017B08E4
:10197400F5007C08F60020088C313B248C310800EB
:10198400F5007308F40074084101EC004001921161
:1019940097118A311A228C3141016C088A312C2228
:1019A4008C31FE308A312C228C3175088A312C22FC
:1019B4008C318A3120228C318A311A228C314101B6
:1019C4006C088A312C228C3100308A312C228C31E3
:1019D40021308A312C228C318A3120228C3108002A
:1019E4004001E3005F08E5005E08E4004101DA011C
:1019F400DB01102D6430E1006108CE006008E200D4
:101A04006208CF0063088031A2208C3140014E0867
:101A14004101DA0740014F084101DB3D4001640800
:101A24008400650885001200031D192D1A2DFC2C55
:101A340041015B084001DF0041015A084001DE001A
:101A440008008A317B228D318A3134228D318030F5
:101A54004101D7005708F30082308C31C2248D3104
:101A64004E308E31CE268D318A316B228D318B31C1
:101A7400EB238D3103104001171D03140318432D6C
:101A8400462D40011715482D400117118E316A2645
:101A94008D314101D7005708D90080311D208D3187
:101AA400410159088F3151278D3115304101D8003A
:101AB4004B30D700BE30890B5D2DD70B5D2DD80B75
:101AC4005D2D00003C2D80310228720803196B2D16
:101AD4006C2D712D7208031D702D712D762D7008DB
:101AE4008A3102228D31B52D7208033E86008701AA
:101AF4001600010403197F2D802D9D2D7208033ECD
:101B040086008701403FF300413FF400720A8600DB
:101B14008701403FF500413FF6007608803AF70020
:101B24007408803A7702031D992D7308750203180F
:101B34009C2D9D2DB52D7008F30072088600870139
:101B4400720A8400850100080107F4007408860005
:101B5400870173088100720A8600870101308107BA
:101B640041310318810A08004001AB004101601CA7
:101B7400BC2DBD2DC62D40012B08FC007C08F800AF
:101B840024088C3112248D314001A61BCA2DCB2D83
:101B9400D02D2608AA002508A900D22DA901AA0142
:101BA400A701A801E62D2030F0000030F10040012B
:101BB4002B08FC007C08F2008D3167258D31013043
:101BC4004001A7070030A83D2808803AFC002A08F5
:101BD400803A7C02031DF02D29082702031CF32DF3
:101BE400F42DD52D41016018F82DF92D022E400158
:101BF4002B08FC007C08F80024088C3112248D3159
:101C0400400124088B3108238D31400129087007D5
:101C1400A4002A08713DA50008004001960197011F
:101C24001830980099019A0130309100F1309200F7
:101C3400BF30930094010730950030307E01B80026
:101C4400F030C3006730CE00D9010730E400B90199
:101C5400C401CF01DA01E501BA01C501D001DB01FC
:101C6400E601FF30BB00FF30C600FF30D100FF307B
:101C7400DC000730E700FF30BC00FF30C700FF3056
:101C8400D200FF30DD000F30E80017307D01CB00BB
:101C9400103092000D30930010307E01A6001330F6
:101CA4007D01C50014307E01A30014307D01C600FF
:101CB40015307E01A400BD01BE01BF01C801C901E8
:101CC400CA01D301D401D501E901EA01EB010800FD
:101CD4008A3116228E3134304001A900F130890B4B
:101CE400712EA90B712E00328B31C5238E317C08E5
:101CF4004001AB007B08AA008A3112228E313430B5
:101D04004001A900F130890B852EA90B852E0032E4
:101D14008B31C5238E317C084001AD007B08AC00BB
:101D24008A310A228E3134304001A900F130890B06
:101D3400992EA90B992E00328B31C5238E317C0844
:101D44004001AF007B08AE008A310E228E31343060
:101D54004001A900F130890BAD2EA90BAD2E003244
:101D64008B31C5238E317C084001B1007B08B00063
:101D74002B08F7002A08F6002D08F9002C08F800B3
:101D84002F08FB002E08FA003108FD003008FC0083
:101D94008431D8248E310800FA007A08F8007808D3
:101DA4004101E30000308A319C228E319C30F800DE
:101DB400D730890BDB2EF80BDB2E000003308A3181
:101DC400C4228E311A30F800F830890BE72EF80B54
:101DD400E72E003203308A31C4228E311A30F800E3
:101DE400F830890BF32EF80BF32E003203308A31CE
:101DF400C4228E311A30F800F830890BFF2EF80B0C
:101E0400FF2E003202308A31C4228E311A30F8009B
:101E1400F830890B0B2FF80B0B2F003228308A3146
:101E2400C4228E310230F9000430F800BA30890B34
:101E3400192FF80B192FF90B192F00320C308A3196
:101E4400C4228E310230F9000430F800BA30890B14
:101E5400292FF80B292FF90B292F003201308A3151
:101E6400C4228E310230F9000430F800BA30890BF4
:101E7400392FF80B392FF90B392F003206308A31FC
:101E8400C4228E310230F9000430F800BA30890BD4
:101E9400492FF80B492FF90B492F00320800FD0098
:101EA400DF2FF80100308C3193248F31F801013099
:101EB4008C3193248F31F801F80A02308C31932449
:101EC4008F31FF2FF80100308C3193248F31F801CA
:101ED400F80A01308C3193248F31F80102308C31AF
:101EE40093248F31FF2FF80100308C3193248F31EC
:101EF400F801F80A01308C3193248F31F801F80A83
:101F040002308C3193248F31FF2FF801F80A00300E
:101F14008C3193248F31F80101308C3193248F312B
:101F2400F80102308C3193248F31FF2FF801F80A25
:101F340000308C3193248F31F80101308C3193249B
:101F44008F31F801F80A02308C3193248F31FF2F3E
:101F5400F801F80A00308C3193248F31F801F80A23
:101F640001308C3193248F31F80102308C31932469
:101F74008F31FF2FF801F80A00308C3193248F3110
:101F8400F801F80A01308C3193248F31F801F80AF2
:101F940002308C3193248F31FF2FF80100308C31C3
:101FA40093248F31F80101308C3193248F31F8015F
:101FB40002308C3193248F31FF2F7D084001A30020
:101FC400A4012408003A0319E82FCF2F2308013A6B
:101FD4000319532F033A0319642F013A0319752F78
:101FE400073A0319872F013A0319982F033A031963
:101FF400AA2F013A0319BC2FCF2F080042346534AD
:10200400613464347334203443346F346C346F3447
:102014007234203453346F3472347434653472340B
:10202400203432345E343334003442344B34253477
:1020340064342034573425346434203442344E34E8
:10204400253464342034553425346434003459340C
:1020540025346434203452342534643420344734F1
:102064002534643420344234453425346434003413
:10207400473472346F347534703420343A34203435
:0420840042340034AE
:020000040001F9
:08000000FF3FFF3FFF3FFF3F00
:0A000E008C3FFF3F9F3FFF3FFF3F85
:00000001FF
