:10000000803102288731E62F640080010131890B9D
:1000100005280034803043018F00083090009101A2
:10002000920127308D00400193151316430190165D
:100030000800F4007408F2007208F300232801306D
:10004000F2007208F4077408860001308700010886
:10005000031D2B282C281F2873087402F000F101BF
:10006000F01BF1030800F401F5014428710874073E
:1000700084007208753D850000088F31A227803109
:100080000130F4070030F53D7108740784007208F0
:10009000753D85001200031D4E284F2836280800A4
:1000A0004001A300A101A20168282008F900FA017B
:1000B0007908F0007A08F1007808FB007B08F2006C
:1000C00081311321803101304001A1070030A23D70
:1000D00021082307F900790886000130870001080C
:1000E000FA007A08A0002008031D772878285528F0
:1000F0000800A430FD007D084001E6004101210810
:100100004001E800410120084001E700E901EA015F
:10011000EB01EC01410123084001DF00410122080D
:100120004001DE006630FD007D08E0006730803170
:10013000A72080310230673E86008701403F4101A1
:1001400020078400413F213D8500800108004001D7
:10015000E3005F08E5005E08E4004101DA01DB012D
:10016000C5286430E1006108CE006008E200620842
:10017000CF0063088331B023803140014E08410134
:10018000DA0740014F084101DB3D4001640884006B
:10019000650885001200031DCE28CF28B128410133
:1001A0005B084001DF0041015A084001DE00080001
:1001B0008F318727803140016D088F319A27803138
:1001C00092308F319A2780318F31872780314001DB
:1001D0006D0801388F319A27803101308F31CF2758
:1001E00080314101AC002C08D6008F318D27803141
:1001F000AE304101A0000030A1000030A2008830E4
:10020000A3005608AC00AD012C08A4002D08A500E1
:10021000803179208031AE30F1000030F200803141
:1002200033208031080072080319172918291D2965
:100230007208031D1C291D29222970088F3182276D
:10024000813167297208043E860087011600010487
:1002500003192B292C294A297208043E860087019C
:10026000403FF300413FF4007208023E86008701E0
:10027000403FF500413FF6007608803AF7007408E9
:10028000803A7702031D462973087502031849292D
:100290004A2967297208023E860087017208840095
:1002A0008501403F0007F3000131413F003DF4006C
:1002B0007308860074088700700881007208023E87
:1002C000860087010130810741310318810A080047
:1002D0004001AB004101601C6E296F297829400163
:1002E0002B08FC007C08F800240880315020813164
:1002F0004001A61B7C297D2982292608AA00250801
:10030000A9008429A901AA01A701A80198292030E0
:10031000F0000030F10040012B08FC007C08F200E6
:1003200081311321813101304001A7070030A83D00
:100330002808803AFC002A08803A7C02031DA22982
:1003400029082702031CA529A6298729410160182D
:10035000AA29AB29B42940012B08FC007C08F8002D
:100360002408803150208131400124088031192037
:100370008131400129087007A4002A08713DA500B9
:1003800008004001960197011830980099019A01E0
:1003900030309100F1309200BF309300940107306B
:1003A000950030307E01B800F030C3006730CE00D9
:1003B000D9010730E400B901C401CF01DA01E50138
:1003C000BA01C501D001DB01E601FF30BB00FF30FF
:1003D000C600FF30D100FF30DC000730E700FF30FF
:1003E000BC00FF30C700FF30D200FF30DD000F300F
:1003F000E80017307D01CB00103092000D309300E3
:1004000010307E01A60013307D01C50014307E013E
:10041000A30014307D01C60015307E01A400BD018B
:10042000BE01BF01C801C901CA01D301D401D50170
:10043000E901EA01EB010800F3007335F2007208EC
:100440004001ED008F318727823140016D088F31E7
:100450009A27823180308F319A278231A6308F31AE
:100460009A2782318F318D2782318F3187278231D0
:1004700040016D088F319A27823180308F319A2761
:10048000823103308F319A2782318F318D2782312B
:100490008F318727823140016D088F319A27823151
:1004A00081308F319A27823100308F319A27823103
:1004B0008F318D2782318F318727823140016D083E
:1004C0008F319A2782318D308F319A2782310030D7
:1004D0008F319A2782318F318D2782318F31872753
:1004E000823140016D088F319A27823183308F31FC
:1004F0009A27823100308F319A2782318F318D27B0
:1005000082318F318727823140016D088F319A27E0
:1005100082318F308F319A27823101308F319A2783
:1005200082318F318D27823108004001A8008F3140
:100530008727823140016D088F319A2782319430AC
:100540008F319A2782318F318727823140016D08A0
:10055000013E8F319A27823100308F31CF2782318F
:10056000F60076084001A70000308F31CF27823196
:10057000F60076084001A60000308F31CF27823187
:10058000F60076084001A10000308F31CF2782317C
:10059000F60076084001A00000308F31CF2782316D
:1005A000F60076084001A30000308F31CF2782315A
:1005B000F60076084001A20000308F31CF2782314B
:1005C000F60076084001A50001308F31CF27823137
:1005D000F60076084001A4008F318D27823140015A
:1005E00028088600013087002108C03F2008C13F4D
:1005F00073088600013087002308C03F2208C13FEE
:1006000074088600013087002508C03F2408C13FD8
:1006100075088600013087002708C03F2608C13FC3
:1006200008008F31AC27833180310A2083318F312C
:10063000B6278331F101F10A293082311C2283313E
:100640008031D820833115304101D8004B30D7009C
:10065000BE30890B292BD70B292BD80B292B000057
:1006600054304101D7005708F3005630D8005808DD
:10067000F4005830D9005908F500523082319522E3
:10068000833120304101A0000130A1005A30A20086
:100690009030A300420153084101A50042015208D5
:1006A0004101A4008031792083312030F1000130F4
:1006B000F20080313320833120304101A00001302D
:1006C000A1005330A2009030A3004201550841011F
:1006D000A500420154084101A400803179208331F2
:1006E0002030F1000130F20080313320833120309E
:1006F0004101A0000130A1004C30A2009030A300C5
:10070000420157084101A500420156084101A400D9
:100710008031792083312030F1000130F2008031C6
:100720003320833120304101A0000130A10044304A
:10073000A2009030A300420159084101A5004201E6
:1007400058084101A4008031792083312030F10024
:100750000130F200803133208331232B8031022895
:100760004001DD004E0886008701403FD000413F38
:10077000D10050088400510885001200253A031D5D
:10078000C22BC32B672C4E088600870101308107DE
:1007900041310318810A4101DC01DD01E001E10181
:1007A000FF30DE00FF30DF0040014E088600870189
:1007B000403FD000413FD1005008840051088500DF
:1007C0001200643A0319E52BE62BF72B4E0886003E
:1007D0008701403FD000413FD100500884005108BC
:1007E00085001200693A031DF62BF72B322C4E08B8
:1007F000860087010130810741310318810A4F08C3
:100800008600870101088400850102308107003FCE
:10081000D000013FD1005008D5005108D600890D05
:10082000893B8909D700D800D900DA00DB00DC0059
:100830005508B0005608B1005708B2005808B30078
:100840005908B4005A08B5005B08B6005C08B70048
:100850005D0886317626833140013108CF003008AB
:10086000CE008A2C4E0886008701403FD000413FD1
:10087000D10050088400510885001200253A031D5C
:10088000422C432C5C2C4E088600870101308107E6
:1008900041310318810A2530F0000030F1005D0875
:1008A000D0005008F2008131132183310130400122
:1008B000CE000030CF008A2C4E0886008701013020
:1008C000810741310318810ACE01CF018A2C4E08DD
:1008D00086008701403FD000413FD100500884008E
:1008E000510885000008D200D3015208F0005308D7
:1008F000F1005D08D4005408F200813113218331E6
:1009000040014E08860087010130810741310318FC
:10091000810A562C0800F20128308600003087003A
:10092000473FF000F01F952C962CB72C4001A809EA
:10093000A909AA09AB09AC09AD09AE09AF09A80A12
:10094000031DB52CA90A031DB52CAA0A031DB52C3D
:10095000AB0A031DB52CAC0A031DB52CAD0A031D53
:10096000B52CAE0A031DB52CAF0AF201F20A2030F5
:10097000860000308700473FF000F01FC02CC12CDC
:10098000E02C4001A009A109A209A309A409A50915
:10099000A609A709A00A031DE02CA10A031DE02C4B
:1009A000A20A031DE02CA30A031DE02CA40A031DC8
:1009B000E02CA50A031DE02CA60A031DE02CA70AC3
:1009C00040012008210422042304240425042604D1
:1009D00027040319EC2CED2C402DF101F10AFC2C1D
:1009E000A035A10DA20DA30DA40DA50DA60DA70D5B
:1009F0000130F0007008F107A71FFF2C002DF02C2C
:100A000027082F02031D1E2D26082E02031D1E2D52
:100A100025082D02031D1E2D24082C02031D1E2D4A
:100A200023082B02031D1E2D22082A02031D1E2D42
:100A300021082902031D1E2D20082802031C212D38
:100A4000222D322D2008A8022108A93B2208AA3B0A
:100A50002308AB3B2408AC3B2508AD3B2608AE3B46
:100A60002708AF3BA736A60CA50CA40CA30CA20C20
:100A7000A10CA00C0130F102031D3F2D402D002DD3
:100A800072080319442D452D632DA809A909AA0947
:100A9000AB09AC09AD09AE09AF09A80A031D632D66
:100AA000A90A031D632DAA0A031D632DAB0A031DAA
:100AB000632DAC0A031D632DAD0A031D632DAE0A21
:100AC000031D632DAF0A40012808A0002908A100DA
:100AD0002A08A2002B08A3002C08A4002D08A500BA
:100AE0002E08A6002F08A7000800F201203086007B
:100AF00000308700473FF000F01F7F2D802DA12D93
:100B00004001A009A109A209A309A409A509A609F0
:100B1000A709A00A031D9F2DA10A031D9F2DA20A4C
:100B2000031D9F2DA30A031D9F2DA40A031D9F2DA6
:100B3000A50A031D9F2DA60A031D9F2DA70AF201DA
:100B4000F20A2830860000308700473FF000F01F8F
:100B5000AA2DAB2DCE2D4001A809A909AA09AB09E0
:100B6000AC09AD09AE09AF09A80A031DCA2DA90A2F
:100B7000031DCA2DAA0A031DCA2DAB0A031DCA2DC7
:100B8000AC0A031DCA2DAD0A031DCA2DAE0A031DF2
:100B9000CA2DAF0A0130F0007008F20673308600EB
:100BA000003087000830F00000301E00F00BD52D1B
:100BB00040012008210422042304240425042604DF
:100BC00027040319E42DE52D412EF101F10AF42D3E
:100BD000A035A10DA20DA30DA40DA50DA60DA70D69
:100BE0000130F0007008F107A71FF72DF82DE82D50
:100BF000F335F40DF50DF60DF70DF80DF90DFA0DB1
:100C000027082F02031D1E2E26082E02031D1E2E4E
:100C100025082D02031D1E2E24082C02031D1E2E46
:100C200023082B02031D1E2E22082A02031D1E2E3E
:100C300021082902031D1E2E20082802031C212E34
:100C4000222E332E2008A8022108A93B2208AA3B05
:100C50002308AB3B2408AC3B2508AD3B2608AE3B44
:100C60002708AF3B7314A736A60CA50CA40CA30C45
:100C7000A20CA10CA00C0130F102031D402E412E4C
:100C8000F82D72080319452E462E642EF309F40937
:100C9000F509F609F709F809F909FA09F30A031D34
:100CA000642EF40A031D642EF50A031D642EF60A51
:100CB000031D642EF70A031D642EF80A031D642E1B
:100CC000F90A031D642EFA0A73084001A000740893
:100CD000A1007508A2007608A3007708A400780890
:100CE000A5007908A6007A08A70008004001BD0009
:100CF0003008C4003108C5003208C6003308C700F8
:100D00003408C8003508C9003608CA003708CB00C7
:100D10004430860000308700473FB800B81B912E52
:100D2000932E0130942E00304001B900BA013908E9
:100D3000C2003A08C300420843040319A02EA12EA2
:100D4000BF2EC409C509C609C709C809C909CA0906
:100D5000CB09C40A031DBF2EC50A031DBF2EC60A38
:100D6000031DBF2EC70A031DBF2EC80A031DBF2EB9
:100D7000C90A031DBF2ECA0A031DBF2ECB0A41019B
:100D8000DF1BC32EC42EC82EFD30E005FF30E10569
:100D90005F08803A4001B80080303802031DD32E2E
:100DA000013041015E020318D62ED72EDD2E013010
:100DB0004001BE000030BF00E52E41015F08400148
:100DC000BF0041015E084001BE0041015D084001D5
:100DD000C10041015C084001C00042084304031DFA
:100DE000F22EF32EF82E4101601DF72EF82EFD2E67
:100DF000FF304001C007FF30C13D1F304001CC0033
:100E00000030CD004301BF016E2FFF304001CC0701
:100E1000FF30CD3D0A30A000A101A201A301A40131
:100E2000A501A601A7014408A8004508A900460895
:100E3000AA004708AB004808AC004908AD004A08C2
:100E4000AE004B08AF0084318B248631400121086D
:100E5000F4002008F3008F31E62786317308303E16
:100E60004001B8004C08A03E8600013087003808D9
:100E70008100FF30BE07FF30BF3DFF30C007FF30AD
:100E8000C13D0A30A000A101A201A301A401A50156
:100E9000A601A7014408A8004508A9004608AA0021
:100EA0004708AB004808AC004908AD004A08AE004E
:100EB0004B08AF0085317525863140012008C400FC
:100EC0002108C5002208C6002308C7002408C8005E
:100ED0002508C9002608CA002708CB0040014D0894
:100EE000803AB80080303802031D782F01304C0260
:100EF000031C7B2F7C2FA92F400144084504460486
:100F00004704480449044A044B04031D882F892FD1
:100F1000052F3F08803AB80080303802031D922F19
:100F200001303E020318952F962F052F40014108EE
:100F3000803AB80080303802031DA02F01304002F3
:100F4000031CA32FA42FA92F4101E018A82FA92F1C
:100F5000052F400142084304031DAF2FB02FB52FCA
:100F60004101601DB42FB52FD22FFF304001CC07B7
:100F7000FF30CD3D42084304031DBF2FC02FC52FB6
:100F80002B30BB000030BC00C92F2D30BB0000301F
:100F9000BC003B08B8004C08A03E8600013087002A
:100FA0003808810040014C08A03EB8003808A40071
:100FB0004108A6004008A5003D088131682186311E
:100FC00040012508B1002408B000080041018F311C
:100FD00083278731EC004001EE01DA3084000030D5
:100FE00085001230803104208731A0308400013028
:100FF0008500203080310420873140018331112B5E
:101000005434433453343334343437343234203466
:10101000613464346434723465347334733420342A
:1010200072346534613464342034663472346F341D
:101030006D34203449344434203472346534673498
:10104000693473347434653472343A34203425345A
:1010500064340A340D3400344D34653461347334EF
:101060007534723465342034313430342034703483
:101070006934653463346534733420344F347234E6
:1010800061346E34673465342034423465346134FD
:10109000643420346E346F3477343A3420340A3474
:1010A0000D3400344D346534613473347534723426
:1010B000653420343134303420347034693465344C
:1010C000633465347334203450347534723470347E
:1010D0006C346534203442346534613464342034F3
:1010E0006E346F3477343A3420340A340D3400349B
:1010F0004D3465346134733475347234653420345E
:1011000031343034203470346934653463346534B8
:1011100073342034593465346C346C346F34773420
:101120002034423465346134643420346E346F3496
:1011300077343A3420340A340D3400344D34653475
:10114000613473347534723465342034313430345E
:101150002034703469346534633465347334203436
:101160005734683469347434653420344234653417
:101170006134643420346E346F3477343A3420343C
:101180000A340D3400344D346534613473347534AD
:10119000723465342034313430342034703469345E
:1011A0006534633465347334203442346C346134D0
:1011B00063346B3420344234653461346434203415
:1011C0006E346F3477343A3420340A340D340034BA
:1011D0004D3465346134733475347234653420347D
:1011E00031343034203470346934653463346534D8
:1011F0007334203447347234653465346E342034AB
:10120000423465346134643420346E346F3477345E
:101210003A3420340A340D3400344D3465346134AA
:1012200073347534723465342034313430342034BE
:101230007034693465346334653473342034423433
:101240006C3475346534203442346534613464342C
:1012500020346E346F3477343A3420340A340D3409
:1012600000344D346534613473347534723465340C
:10127000203431343034203470346934653463348C
:10128000653473342034503469346E346B34203414
:10129000423465346134643420346E346F347734CE
:1012A0003A3420340A340D3400344D34653461341A
:1012B000733475347234653420343134303420342E
:1012C0007034693465346334653473342034523493
:1012D00065346434203442346534613464342034F9
:1012E0006E346F3477343A3420340A340D34003499
:101F0400080008348B170B170800430111148F3194
:101F140093278F310800430111158F3193278F3197
:101F240008004E010F1C972F982F932F0F100800B5
:101F3400F000700843018C008F3193278F31080023
:101F4400F0004E010F1EA72FA82FA32F70084201E7
:101F54009A0008008F31C2278F318131C1218F311E
:101F64008F3184278F310800483042019F00903020
:101F74009D0026309E009F309B0001309C0008008D
:101F8400613051018D0070308E008F01403091001E
:101F940006309300900192010800F100430191156D
:101FA4008F3193278F3143010C08F0007008F20041
:101FB4000F10710C031C91120318911611168F3116
:101FC40093278F31720808007408803AF500803036
:101FD4007502031DEF2F013073020318F22FF32F44
:101FE400FF2F7309F5007409F600F50A0319F60AC0
:101FF4007508F3007608F400FF2F080042346534B6
:10200400613464347334203443346F346C346F3447
:102014007234203453346F3472347434653472340B
:10202400203432345E343334003442344B34253477
:1020340064342034573425346434203442344E34E8
:10204400253464342034553425346434003459340C
:1020540025346434203452342534643420344734F1
:102064002534643420344234453425346434003413
:10207400473472346F347534703420343A34203435
:102084004234003443343A342034253464340A343A
:102094000D34003442343A34203425346434093461
:1020A400003447343A342034253464340934003459
:0E20B40052343A342034253464340934003474
:020000040001F9
:08000000FF3FFF3FFF3FFF3F00
:0A000E008C3FFF3F9F3FFF3FFF3F85
:00000001FF
