:10000000803102288731E82F0834FB001F28780848
:10001000BF3E8E318926803132287808933E8E315A
:100020008926803132287808D33E8E318926803166
:10003000322878087F3E8E318926803132287B082D
:10004000F900FA017A08003A0319272819287908D3
:10005000023A03190728013A03190D28073A031930
:10006000132819280800F80010307802031C3928DA
:100070003A283B2864288E312126803141016E08C0
:100080008E31332680317808F7000130F735FF3E96
:10009000031D46287735063E8E313326803173089E
:1000A0008E313326803174080F398E3133268031FA
:1000B00075088E313326803176080F398E3133261C
:1000C00080318E31272680310800FC007908FA0043
:1000D0007A08FD007D08031D6E286F287A280030FD
:1000E000F300F4008230F5000030F6007C08803127
:1000F000332080317D03031D7E287F288B2800302C
:10010000F300F400F430F5000130F6007C08803193
:1001100033208031A32803104001171D0314031856
:100120009228952840011715972840011711023091
:10013000FB000430FA00BA30890B9C28FA0B9C288B
:10014000FB0B9C280032080072080319A828A92874
:10015000AE287208031DAD28AE28B32870088E3172
:100160001D268031F2287208033E860087011600A2
:1001700001040319BC28BD28DA287208033E860052
:100180008701403FF300413FF400720A8600870177
:10019000403FF500413FF6007608803AF7007408CA
:1001A000803A7702031DD628730875020318D928F0
:1001B000DA28F2287008F300720886008701720AB4
:1001C0008400850100080107F40074088600870197
:1001D00073088100720A860087010130810741316E
:1001E0000318810A08008E313B2680318E31522659
:1001F000803180304101D7005708F30082308F31C1
:100200009F2780314E308131FB2180318F314F2744
:1002100080314101DA01DB014101D90103104001C4
:10022000171D0314031815291829400117151A2939
:100230004001171182317E22803100308331032347
:10024000803101304101D7005708D90729304101D9
:10025000D8009630D7007F30890B2C29D70B2C295A
:10026000D80B2C2901304101DA070030DB3D5B0857
:10027000803AD70080305702031D402908305A02C7
:10028000031C432944290C290929803102284001F3
:10029000AB004101621C4D294E29572940012B0812
:1002A000FC007C08F80024088F317627813140015A
:1002B000A61B5B295C2961292608AA002508A9003C
:1002C0006329A901AA01A701A80177292030F0001C
:1002D0000030F10040012B08FC007C08F200803166
:1002E000A420813101304001A7070030A83D280833
:1002F000803AFC002A08803A7C02031D81292908E3
:100300002702031C8429852966294101621889294D
:100310008A29932940012B08FC007C08F800240856
:100320008F3176278131400124088E31CE268131EC
:10033000400129087007A4002A08713DA5000800A3
:100340004001960197011830980099019A013030C8
:100350009100F1309200BF30930094010730950076
:1003600030307E01B800F030C3006730CE00D901D4
:100370000730E400B901C401CF01DA01E501BA0197
:10038000C501D001DB01E601FF30BB00FF30C60034
:10039000FF30D100FF30DC000730E700FF30BC0049
:1003A000FF30C700FF30D200FF30DD000F30E80023
:1003B00017307D01CB00103092000D3093001030CB
:1003C0007E01A60013307D01C50014307E01A3001C
:1003D00014307D01C60015307E01A400BD01BE01B0
:1003E000BF01C801C901CA01D301D401D501E90186
:1003F000EA01EB010800FA007A08F80078084101E8
:10040000E50000308E31612681319C30F800D73014
:10041000890B082AF80B082A000003308E31892640
:1004200081311A30F800F830890B142AF80B142A9D
:10043000003203308E31892681311A30F800F830CD
:10044000890B202AF80B202A003203308E318926AE
:1004500081311A30F800F830890B2C2AF80B2C2A3D
:10046000003202308E31892681311A30F800F8309E
:10047000890B382AF80B382A003228308E31892629
:1004800081310230F9000430F800BA30890B462A75
:10049000F80B462AF90B462A00320C308E31892699
:1004A00081310230F9000430F800BA30890B562A45
:1004B000F80B562AF90B562A003201308E31892664
:1004C00081310230F9000430F800BA30890B662A15
:1004D000F80B662AF90B662A003206308E3189261F
:1004E00081310230F9000430F800BA30890B762AE5
:1004F000F80B762AF90B762A00320800F801F80A80
:10050000013080310520823129304001E6009030F1
:10051000E70041016D08A700A80127084001E80095
:10052000410128084001E90041016C08A900AA0125
:1005300029084001EA0041012A084001EB0041017D
:100540006B08AB00AC012B084001EC0041012C080A
:100550004001ED0041016A08AD00AE012D084001E7
:10056000EE0041012E084001EF00AF308F3105272A
:100570008231AF30F8000030F9008E31E826823148
:10058000F801F80A0230803105208231173040012D
:10059000E6009030E70041016908A700A80127089C
:1005A0004001E800410128084001E90041016808D4
:1005B000A900AA0129084001EA0041012A084001D6
:1005C000EB0041016708AB00AC012B084001EC00D7
:1005D00041012C084001ED0041016608AD00AE016B
:1005E0002D084001EE0041012E084001EF00AF3020
:1005F0008F3105278231AF30F8000030F9008E319D
:10060000E826823108004001A200922BF901003057
:10061000803165208331F9010130803165208331DB
:10062000F901F90A0230803165208331B12BF901DB
:100630000030803165208331F901F90A01308031C1
:1006400065208331F9010230803165208331B12B7F
:10065000F9010030803165208331F901F90A013058
:10066000803165208331F901F90A0230803165203B
:100670008331B12BF901F90A0030803165208331D3
:10068000F9010130803165208331F9010230803178
:1006900065208331B12BF901F90A003080316520E2
:1006A0008331F9010130803165208331F901F90A84
:1006B0000230803165208331B12BF901F90A003015
:1006C000803165208331F901F90A013080316520DC
:1006D0008331F9010230803165208331B12BF9017A
:1006E000F90A0030803165208331F901F90A0130BF
:1006F000803165208331F901F90A023080316520AB
:100700008331B12BF9010030803165208331F9014B
:100710000130803165208331F9010230803165205C
:100720008331B12B2208A000A1012108003A03194E
:100730009A2B822B2008013A0319062B033A03193E
:10074000172B013A0319282B073A03193A2B013AC0
:1007500003194B2B033A03195D2B013A03196F2B35
:10076000822B08004001DD004E0886008701403FD3
:10077000D000413FD100500884005108850012008C
:10078000253A031DC42BC52B692C4E088600870112
:100790000130810741310318810A4101DE01DF0187
:1007A000E201E301FF30E000FF30E10040014E08CC
:1007B00086008701403FD000413FD10050088400AF
:1007C000510885001200643A0319E72BE82BF92B36
:1007D0004E0886008701403FD000413FD1005008BD
:1007E0008400510885001200693A031DF82BF92B8B
:1007F000342C4E08860087010130810741310318EF
:10080000810A4F08860087010108840085010230B3
:100810008107003FD000013FD1005008D5005108AA
:10082000D600890D893B8909D700D800D900DA00A4
:10083000DB00DC005508B0005608B1005708B200D4
:100840005808B3005908B4005A08B5005B08B60050
:100850005C08B7005D088631782683314001310895
:10086000CF003008CE008C2C4E0886008701403F18
:10087000D000413FD100500884005108850012008B
:10088000253A031D442C452C5E2C4E08860087011A
:100890000130810741310318810A2530F000003012
:1008A000F1005D08D0005008F2008031A4208331AF
:1008B00001304001CE000030CF008C2C4E08860065
:1008C00087010130810741310318810ACE01CF0130
:1008D0008C2C4E0886008701403FD000413FD1005C
:1008E00050088400510885000008D200D301520846
:1008F000F0005308F1005D08D4005408F200803184
:10090000A420833140014E08860087010130810711
:1009100041310318810A582C0800F2012830860062
:1009200000308700473FF000F01F972C982CB92C1F
:100930004001A809A909AA09AB09AC09AD09AE098A
:10094000AF09A80A031DB72CA90A031DB72CAA0AD0
:10095000031DB72CAB0A031DB72CAC0A031DB72C23
:10096000AD0A031DB72CAE0A031DB72CAF0AF20166
:10097000F20A2030860000308700473FF000F01F69
:10098000C22CC32CE22C4001A009A109A209A30991
:10099000A409A509A609A709A00A031DE22CA10A1A
:1009A000031DE22CA20A031DE22CA30A031DE22C64
:1009B000A40A031DE22CA50A031DE22CA60A031DAE
:1009C000E22CA70A40012008210422042304240465
:1009D0002504260427040319EE2CEF2C422DF101E7
:1009E000F10AFE2CA035A10DA20DA30DA40DA50D9D
:1009F000A60DA70D0130F0007008F107A71F012D0B
:100A0000022DF22C27082F02031D202D26082E026E
:100A1000031D202D25082D02031D202D24082C0246
:100A2000031D202D23082B02031D202D22082A023E
:100A3000031D202D21082902031D202D2008280236
:100A4000031C232D242D342D2008A8022108A93BA6
:100A50002208AA3B2308AB3B2408AC3B2508AD3B4E
:100A60002608AE3B2708AF3BA736A60CA50CA40C66
:100A7000A30CA20CA10CA00C0130F102031D412D0E
:100A8000422D022D72080319462D472D652DA80908
:100A9000A909AA09AB09AC09AD09AE09AF09A80AB1
:100AA000031D652DA90A031D652DAA0A031D652DC9
:100AB000AB0A031D652DAC0A031D652DAD0A031D90
:100AC000652DAE0A031D652DAF0A40012808A00060
:100AD0002908A1002A08A2002B08A3002C08A400C2
:100AE0002D08A5002E08A6002F08A7000800F20177
:100AF0002030860000308700473FF000F01F812D36
:100B0000822DA32D4001A009A109A209A309A409CE
:100B1000A509A609A709A00A031DA12DA10A031D65
:100B2000A12DA20A031DA12DA30A031DA12DA40A14
:100B3000031DA12DA50A031DA12DA60A031DA12D8C
:100B4000A70AF201F20A2830860000308700473FEA
:100B5000F000F01FAC2DAD2DD02D4001A809A90942
:100B6000AA09AB09AC09AD09AE09AF09A80A031D72
:100B7000CC2DA90A031DCC2DAA0A031DCC2DAB0A2E
:100B8000031DCC2DAC0A031DCC2DAD0A031DCC2DAD
:100B9000AE0A031DCC2DAF0A0130F0007008F2063A
:100BA00073308600003087000830F00000301E00EF
:100BB000F00BD72D40012008210422042304240433
:100BC0002504260427040319E62DE72D432EF10101
:100BD000F10AF62DA035A10DA20DA30DA40DA50DB2
:100BE000A60DA70D0130F0007008F107A71FF92D21
:100BF000FA2DEA2DF335F40DF50DF60DF70DF80D80
:100C0000F90DFA0D27082F02031D202E26082E02AB
:100C1000031D202E25082D02031D202E24082C0242
:100C2000031D202E23082B02031D202E22082A023A
:100C3000031D202E21082902031D202E2008280232
:100C4000031C232E242E352E2008A8022108A93BA0
:100C50002208AA3B2308AB3B2408AC3B2508AD3B4C
:100C60002608AE3B2708AF3B7314A736A60CA50C8D
:100C7000A40CA30CA20CA10CA00C0130F102031DCA
:100C8000422E432EFA2D72080319472E482E662E47
:100C9000F309F409F509F609F709F809F909FA0958
:100CA000F30A031D662EF40A031D662EF50A031DC2
:100CB000662EF60A031D662EF70A031D662EF80A35
:100CC000031D662EF90A031D662EFA0A73084001F9
:100CD000A0007408A1007508A2007608A300770898
:100CE000A4007808A5007908A6007A08A7000800E3
:100CF0004001BD003008C4003108C5003208C600FC
:100D00003308C7003408C8003508C9003608CA00CF
:100D10003708CB004430860000308700473FB800DA
:100D2000B81B932E952E0130962E00304001B9004D
:100D3000BA013908C2003A08C30042084304031943
:100D4000A22EA32EC12EC409C509C609C709C80908
:100D5000C909CA09CB09C40A031DC12EC50A031D4E
:100D6000C12EC60A031DC12EC70A031DC12EC80A03
:100D7000031DC12EC90A031DC12ECA0A031DC12E9F
:100D8000CB0A4101E11BC52EC62ECA2EFD30E2055D
:100D9000FF30E3056108803A4001B8008030380236
:100DA000031DD52E0130410160020318D82ED92E23
:100DB000DF2E01304001BE000030BF00E72E4101B0
:100DC00061084001BF00410160084001BE004101CF
:100DD0005F084001C10041015E084001C0004208B7
:100DE0004304031DF42EF52EFA2E4101621DF92E47
:100DF000FA2EFF2EFF304001C007FF30C13D1F30EB
:100E00004001CC000030CD004201BF01702FFF3007
:100E10004001CC07FF30CD3D0A30A000A101A20166
:100E2000A301A401A501A601A7014408A800450843
:100E3000A9004608AA004708AB004808AC004908CA
:100E4000AD004A08AE004B08AF0084318D248631D6
:100E500040012108F4002008F3008E31B4268631C9
:100E60007308303E4001B8004C08203E8600013037
:100E7000870038088100FF30BE07FF30BF3DFF30DC
:100E8000C007FF30C13D0A30A000A101A201A301AB
:100E9000A401A501A601A7014408A8004508A900CE
:100EA0004608AA004708AB004808AC004908AD0056
:100EB0004A08AE004B08AF008531772586314001E6
:100EC0002008C4002108C5002208C6002308C70066
:100ED0002408C8002508C9002608CA002708CB0036
:100EE00040014D08803AB80080303802031D7A2F47
:100EF00001304C02031C7D2F7E2FAB2F4001440894
:100F0000450446044704480449044A044B04031DAD
:100F10008A2F8B2F072F3F08803AB8008030380285
:100F2000031D942F01303E020318972F982F072F8F
:100F300040014108803AB80080303802031DA22FDA
:100F400001304002031CA52FA62FAB2F4101E21850
:100F5000AA2FAB2F072F400142084304031DB12FD6
:100F6000B22FB72F4101621DB62FB72FD42FFF30FC
:100F70004001CC07FF30CD3D42084304031DC12F83
:100F8000C22FC72F2B30BB000030BC00CB2F2D3021
:100F9000BB000030BC003B08B8004C08203E860077
:100FA000013087003808810040014C08203EB8001D
:100FB0003808A4004108A6004008A5003D0881317A
:100FC0004721863140012508B1002408B0000800FF
:100FD0004101803104208731EF00DC308400003093
:100FE000850012308E312D2687312030840001306B
:100FF000850020308E312D26873140018031F32845
:101C3A0008008B170B170800430111148F3129274D
:101C4A008E310800430111158F3129278E31080082
:101C5A00640080010131890B2E2E0034F2007208D3
:101C6A0043018C008F3129278E3108008E31452699
:101C7A008E318131A0218E318E311E268E3108009F
:101C8A00613051018D0070308E008F01403091001B
:101C9A0006309300900192010800803043018F00C2
:101CAA00083090009101920127308D004001931570
:101CBA001316430190160800F3008E3121268E3147
:101CCA00410165088E3133268E31730841016F0454
:101CDA008E3133268E318E3127268E310800F5005B
:101CEA0041016408F4007408F504750804388E315B
:101CFA0061268E317508FB398E3161268E3142306C
:101D0A00890B852E00320800F7004101E4017708AB
:101D1A00F0398E3174268E317708F6000330F635A5
:101D2A00FF3E031D942E7635F0398E3174268E319E
:101D3A000800F7004101E401E40A7708F0398E311E
:101D4A0074268E317708F6000330F635FF3E031D00
:101D5A00AA2E7635F0398E3174268E310800740831
:101D6A00803AF50080307502031DBD2E01307302E2
:101D7A000318C02EC12ECD2E7309F5007409F60082
:101D8A00F50A0319F60A7508F3007608F400CD2E51
:101D9A000800F4007408F2007208F300D82E01302B
:101DAA00F2007208F40774088600013087000108FF
:101DBA00031DE02EE12ED42E73087402F000F10107
:101DCA00F01BF1030800FB01FC01F92E78087B07E0
:101DDA00840079087C3D850000088E319E268E316C
:101DEA000130FB070030FC3D78087B078400790846
:101DFA007C3D85001200031D032F042FEB2E0800E3
:101E0A004101A1006830FD007D08A0002108FD0005
:101E1A007D08A200A301A401A501A601400167084B
:101E2A00DF006608DE00A030FD007D08E000A23079
:101E3A008F31CF278F31410123082107FD007D080B
:101E4A008600870181010800482F4301901F2E2F29
:101E5A002F2F482F03104001171D03140318362F84
:101E6A00392F400117153B2F400117110230F1009D
:101E7A000430F000BA30890B402FF00B402FF10BE1
:101E8A00402F00322F2F4E010F1C4C2F4D2F2A2F7F
:101E9A000F100800F801F80A0130803105208F314F
:101EAA000030F8009030F9008E31E8268F31F801C1
:101EBA00F80A0230803105208F313A30F80090302C
:101ECA00F9008E31E8268F3166304001A100763064
:101EDA00A000C130890B6F2FA00B6F2FA10B6F2FA2
:101EEA0008004001A300A101A2018E2F2008F900D9
:101EFA00FA017908F0007A08F1007808FB007B08FB
:101F0A00F2008031A4208F3101304001A107003056
:101F1A00A23D21082307F9007908860001308700CD
:101F2A000108FA007A08A0002008031D9D2F9E2FA1
:101F3A007B2F0800F5007308F40074084101EE00D5
:101F4A004001921197118E3121268F3141016E087D
:101F5A008E3133268F31FE308E3133268F3175081C
:101F6A008E3133268F318E3127268F318E312126BD
:101F7A008F3141016E088E3133268F3100308E3118
:101F8A0033268F3121308E3133268F318E312726F9
:101F9A008F3108004001E3005F08E5005E08E400B5
:101FAA004101DC01DD01ED2F6430E1006108CE0062
:101FBA006008E2006208CF0063088331B2238F31E0
:101FCA0040014E084101DC0740014F084101DD3D57
:101FDA00400164088400650885001200031DF62F7D
:101FEA00F72FD92F41015D084001DF0041015C084C
:101FFA004001DE00080042346534613464347334CD
:10200A00203443346F346C346F3472342034533494
:10201A006F347234743465347234203432345E343A
:10202A003334003442344B34253464342034573446
:10203A0025346434203442344E3425346434203414
:10204A005534253464340034593425346434203406
:10205A0052342534643420344734253464342034EB
:10206A0042344534253464340034473472346F348E
:0E207A007534703420343A342034423400344B
:020000040001F9
:08000000FF3FFF3FFF3FFF3F00
:0A000E008C3FFF3F9F3FFF3FFF3F85
:00000001FF
