:08000000803102288731FD2F39
:100D2E00430111148631D92686310800430111156D
:100D3E008631D92686310800F200720843018C00F4
:100D4E008631D92686310800613051018D00703010
:100D5E008E008F0140309100063093009001920179
:100D6E000800803043018F000830900091019201FD
:100D7E0027308D004001931513164301901608007D
:100D8E00483042019F0090309D0026309E009F30DB
:100D9E009B0001309C007E01CE114E124001931536
:100DAE0013160800F82E4301901FDE2EDF2EF82EAC
:100DBE0003104001171D03140318E62EE92E4001FF
:100DCE001715EB2E400117110230F1000430F00020
:100DDE00BA30890BF02EF00BF02EF10BF02E003204
:100DEE00DF2E4E010F1CFC2EFD2EDA2E0F100800EA
:100DFE00F70010307702031C052F062F072F272F21
:100E0E008631972686317A088631A32686310630BA
:100E1E008631A326863173088631A326863174085F
:100E2E000F398631A326863175088631A326863181
:100E3E0076080F398631A326863186319D26863176
:100E4E000800F5007308F4007408FA0040019211CE
:100E5E0097118631972687317A088631A3268731F6
:100E6E00FE308631A326873175088631A326873159
:100E7E0086319D2687318631972687317A088631CD
:100E8E00A326873100308631A32687312130863163
:100E9E00A326873186319D26873108008631AB2601
:100EAE0087318731A22787318631C7268731863130
:100EBE00B82687318B170B178030F8007808F300AF
:100ECE00823087312827873140011711A030F30077
:100EDE000F30F4005F30F5000030F6000030863140
:100EEE00FF2687316630F9007630F800C130890B65
:100EFE007E2FF80B7E2FF90B7E2F00004001171569
:100F0E000B30F3000E30F400F430F5000130F60033
:100F1E0000308631FF2687316630F9007630F800D2
:100F2E00C130890B982FF80B982FF90B982F0000D2
:100F3E006B2F8031022840019601970118309800DE
:100F4E0099019A0130309100F1309200BF30930038
:100F5E0094010730950030307E01B800F030C300A8
:100F6E006730CE00D9010730E400B901C401CF01CA
:100F7E00DA01E501BA01C501D001DB01E601FF305E
:100F8E00BB00FF30C600FF30D100FF30DC00073061
:100F9E00E700FF30BC00FF30C700FF30D200FF304B
:100FAE00DD000F30E80017307D01CB0010309200CD
:100FBE000D30930010307E01A60013307D01C50068
:100FCE0014307E01A30014307D01C60015307E0161
:100FDE00A400BD01BE01BF01C801C901CA01D301F0
:100FEE00D401D501E901EA01EB0108004001873186
:020FFE00552F6D
:020000040001F9
:08000000FF3FFF3FFF3FFF3F00
:0A000E008C3FFF3F9F3FFF3FFF3F85
:00000001FF
